{"abi":[{"type":"function","name":"DEFAULT_ADMIN_ROLE","inputs":[],"outputs":[{"name":"","type":"bytes32","internalType":"bytes32"}],"stateMutability":"view"},{"type":"function","name":"addInvestor","inputs":[{"name":"investor","type":"address","internalType":"address"}],"outputs":[],"stateMutability":"nonpayable"},{"type":"function","name":"admin","inputs":[],"outputs":[{"name":"","type":"address","internalType":"address"}],"stateMutability":"view"},{"type":"function","name":"directoryContract","inputs":[],"outputs":[{"name":"","type":"address","internalType":"address"}],"stateMutability":"view"},{"type":"function","name":"getDirectory","inputs":[],"outputs":[{"name":"","type":"address","internalType":"address"}],"stateMutability":"view"},{"type":"function","name":"getInvestors","inputs":[],"outputs":[{"name":"","type":"address[]","internalType":"address[]"}],"stateMutability":"view"},{"type":"function","name":"getMetaCID","inputs":[],"outputs":[{"name":"","type":"bytes32","internalType":"bytes32"}],"stateMutability":"view"},{"type":"function","name":"getRoleAdmin","inputs":[{"name":"role","type":"bytes32","internalType":"bytes32"}],"outputs":[{"name":"","type":"bytes32","internalType":"bytes32"}],"stateMutability":"view"},{"type":"function","name":"getSPVId","inputs":[],"outputs":[{"name":"","type":"string","internalType":"string"}],"stateMutability":"view"},{"type":"function","name":"grantRole","inputs":[{"name":"role","type":"bytes32","internalType":"bytes32"},{"name":"account","type":"address","internalType":"address"}],"outputs":[],"stateMutability":"nonpayable"},{"type":"function","name":"hasRole","inputs":[{"name":"role","type":"bytes32","internalType":"bytes32"},{"name":"account","type":"address","internalType":"address"}],"outputs":[{"name":"","type":"bool","internalType":"bool"}],"stateMutability":"view"},{"type":"function","name":"initialize","inputs":[{"name":"_spvId","type":"string","internalType":"string"},{"name":"_directory","type":"address","internalType":"address"},{"name":"_admin","type":"address","internalType":"address"},{"name":"_metaCID","type":"bytes32","internalType":"bytes32"}],"outputs":[],"stateMutability":"nonpayable"},{"type":"function","name":"isInvestor","inputs":[{"name":"account","type":"address","internalType":"address"}],"outputs":[{"name":"","type":"bool","internalType":"bool"}],"stateMutability":"view"},{"type":"function","name":"metaCID","inputs":[],"outputs":[{"name":"","type":"bytes32","internalType":"bytes32"}],"stateMutability":"view"},{"type":"function","name":"pause","inputs":[],"outputs":[],"stateMutability":"nonpayable"},{"type":"function","name":"paused","inputs":[],"outputs":[{"name":"","type":"bool","internalType":"bool"}],"stateMutability":"view"},{"type":"function","name":"proxiableUUID","inputs":[],"outputs":[{"name":"","type":"bytes32","internalType":"bytes32"}],"stateMutability":"view"},{"type":"function","name":"removeInvestor","inputs":[{"name":"investor","type":"address","internalType":"address"}],"outputs":[],"stateMutability":"nonpayable"},{"type":"function","name":"renounceRole","inputs":[{"name":"role","type":"bytes32","internalType":"bytes32"},{"name":"account","type":"address","internalType":"address"}],"outputs":[],"stateMutability":"nonpayable"},{"type":"function","name":"revokeRole","inputs":[{"name":"role","type":"bytes32","internalType":"bytes32"},{"name":"account","type":"address","internalType":"address"}],"outputs":[],"stateMutability":"nonpayable"},{"type":"function","name":"spvId","inputs":[],"outputs":[{"name":"","type":"string","internalType":"string"}],"stateMutability":"view"},{"type":"function","name":"supportsInterface","inputs":[{"name":"interfaceId","type":"bytes4","internalType":"bytes4"}],"outputs":[{"name":"","type":"bool","internalType":"bool"}],"stateMutability":"view"},{"type":"function","name":"unpause","inputs":[],"outputs":[],"stateMutability":"nonpayable"},{"type":"function","name":"updateDirectory","inputs":[{"name":"newDirectory","type":"address","internalType":"address"}],"outputs":[],"stateMutability":"nonpayable"},{"type":"function","name":"updateMetaCID","inputs":[{"name":"_metaCID","type":"bytes32","internalType":"bytes32"}],"outputs":[],"stateMutability":"nonpayable"},{"type":"function","name":"upgradeTo","inputs":[{"name":"newImplementation","type":"address","internalType":"address"}],"outputs":[],"stateMutability":"nonpayable"},{"type":"function","name":"upgradeToAndCall","inputs":[{"name":"newImplementation","type":"address","internalType":"address"},{"name":"data","type":"bytes","internalType":"bytes"}],"outputs":[],"stateMutability":"payable"},{"type":"event","name":"AdminChanged","inputs":[{"name":"previousAdmin","type":"address","indexed":false,"internalType":"address"},{"name":"newAdmin","type":"address","indexed":false,"internalType":"address"}],"anonymous":false},{"type":"event","name":"BeaconUpgraded","inputs":[{"name":"beacon","type":"address","indexed":true,"internalType":"address"}],"anonymous":false},{"type":"event","name":"DirectoryUpdated","inputs":[{"name":"newDirectory","type":"address","indexed":true,"internalType":"address"}],"anonymous":false},{"type":"event","name":"Initialized","inputs":[{"name":"version","type":"uint8","indexed":false,"internalType":"uint8"}],"anonymous":false},{"type":"event","name":"InvestorAdded","inputs":[{"name":"investor","type":"address","indexed":true,"internalType":"address"}],"anonymous":false},{"type":"event","name":"InvestorRemoved","inputs":[{"name":"investor","type":"address","indexed":true,"internalType":"address"}],"anonymous":false},{"type":"event","name":"MetaCIDUpdated","inputs":[{"name":"newMetaCID","type":"bytes32","indexed":true,"internalType":"bytes32"}],"anonymous":false},{"type":"event","name":"Paused","inputs":[{"name":"account","type":"address","indexed":false,"internalType":"address"}],"anonymous":false},{"type":"event","name":"RoleAdminChanged","inputs":[{"name":"role","type":"bytes32","indexed":true,"internalType":"bytes32"},{"name":"previousAdminRole","type":"bytes32","indexed":true,"internalType":"bytes32"},{"name":"newAdminRole","type":"bytes32","indexed":true,"internalType":"bytes32"}],"anonymous":false},{"type":"event","name":"RoleGranted","inputs":[{"name":"role","type":"bytes32","indexed":true,"internalType":"bytes32"},{"name":"account","type":"address","indexed":true,"internalType":"address"},{"name":"sender","type":"address","indexed":true,"internalType":"address"}],"anonymous":false},{"type":"event","name":"RoleRevoked","inputs":[{"name":"role","type":"bytes32","indexed":true,"internalType":"bytes32"},{"name":"account","type":"address","indexed":true,"internalType":"address"},{"name":"sender","type":"address","indexed":true,"internalType":"address"}],"anonymous":false},{"type":"event","name":"SPVInitialized","inputs":[{"name":"spvId","type":"string","indexed":true,"internalType":"string"},{"name":"directory","type":"address","indexed":true,"internalType":"address"}],"anonymous":false},{"type":"event","name":"Unpaused","inputs":[{"name":"account","type":"address","indexed":false,"internalType":"address"}],"anonymous":false},{"type":"event","name":"Upgraded","inputs":[{"name":"implementation","type":"address","indexed":true,"internalType":"address"}],"anonymous":false}],"bytecode":{"object":"0x60a080604052346100315730608052611de19081610037823960805181818161045d01528181610585015261096d0152f35b600080fdfe608060408181526004918236101561001657600080fd5b600092833560e01c91826301ffc9a714611300575081630cf3c067146112665781631530c4e51461121657816321170359146111a557816323ae58da146110d1578163248a9ca3146110a65781632ce2179714610d135781632f2ff15d14610c6657816336568abe14610bd45781633659cfe6146109455781633f4ba83a146108af578163427149781461084b5781634f1ef2861461050a57816352d1902d146104475781635c975abb1461042357816372ebc710146103f957816376247776146103f95781638456cb591461039e57816391d1485414610357578163a217fddf1461033c578163b2f5a54c1461027f578163b3d35bc71461025f578163b7eb3bfe1461025f578163cee2a9cf14610224578163d547741f146101e157508063e641bde11461017a5763f851a4401461014e57600080fd5b3461017657816003193601126101765761012f5490516001600160a01b039091168152602090f35b5080fd5b82346101de5760203660031901126101de5761019461144c565b61019c611b75565b6101a4611499565b6001600160a01b03166101b681611bf0565b507f62e6a5118be03f9bfedb79b0ed7ed75ee4a9e15fc4c69d2c4976acde26fa2d5f8280a280f35b80fd5b9190503461022057806003193601126102205761021d91356102186001610206611467565b9383875260656020528620015461168d565b611797565b80f35b8280fd5b5050346101765760203660031901126101765760209181906001600160a01b0361024c61144c565b1681526101328452205415159051908152f35b505034610176578160031936011261017657602090610130549051908152f35b8284346101de57806003193601126101de57908051918290610131918254808652602080960190819484527fbd987ad6ccdb7c7567f7335ea839f95dc944431abcf935b6924f70215963db7390845b81811061032857505050816102e49103826113db565b83519485948186019282875251809352850193925b82811061030857505050500390f35b83516001600160a01b0316855286955093810193928101926001016102f9565b8254845292880192600192830192016102ce565b50503461017657816003193601126101765751908152602090f35b9050346102205781600319360112610220578160209360ff92610378611467565b90358252606586528282206001600160a01b039091168252855220549151911615158152f35b50503461017657816003193601126101765760207f62e78cea01bee320cd4e420270b5ea74000d11b0c9f74754ebdbfc544b05a258916103dc611499565b6103e4611b75565b600160ff1960fb54161760fb5551338152a180f35b50503461017657816003193601126101765761012e5490516001600160a01b039091168152602090f35b50503461017657816003193601126101765760209060ff60fb541690519015158152f35b905082346101de57806003193601126101de57507f00000000000000000000000000000000000000000000000000000000000000006001600160a01b031630036104a25760208251600080516020611d6c8339815191528152f35b6020608492519162461bcd60e51b8352820152603860248201527f555550535570677261646561626c653a206d757374206e6f742062652063616c60448201527f6c6564207468726f7567682064656c656761746563616c6c00000000000000006064820152fd5b918091506003193601126102205761052061144c565b9060249081359067ffffffffffffffff82116108475736602383011215610847578185013561054e8161147d565b61055a835191826113db565b8181528760209485830193368882840101116102205780888893018637830101526001600160a01b037f00000000000000000000000000000000000000000000000000000000000000008116906105b33083141561180d565b6105d0600080516020611d6c83398151915292828454161461186e565b6105d8611499565b8716908115610816577fbc7cd75a20ee27fd9adebab32041f755214dbc6bffa90cc0225b39da2e5c2d3b9082828c80a27f4910fdfa16fed3260ed0e7147f7cc6da11a60208b5b9406d12a635614ffd91435460ff161561064457505050505050505061021d91506118cf565b85969798939495516352d1902d60e01b815288818c81875afa8c91816107e3575b506106c357875162461bcd60e51b8152808c018a9052602e818c01527f45524331393637557067726164653a206e657720696d706c656d656e7461746960448201526d6f6e206973206e6f74205555505360901b6064820152608490fd5b99929498919395990361078f5750506106db836118cf565b8780a285845115801590610787575b6106f8575b50505050505080f35b80610771968451966107098861138d565b602788527f416464726573733a206c6f772d6c6576656c2064656c65676174652063616c6c87890152660819985a5b195960ca1b868901525190845af4913d1561077d573d61076361075a8261147d565b925192836113db565b81528681943d92013e61195f565b503880808080856106ef565b506060925061195f565b5060016106ea565b855162461bcd60e51b81529182018790526029908201527f45524331393637557067726164653a20756e737570706f727465642070726f786044820152681a58589b195555525160ba1b6064820152608490fd5b9091508981813d831161080f575b6107fb81836113db565b8101031261080b57519038610665565b8c80fd5b503d6107f1565b845162461bcd60e51b8152808a01879052600c818901526b155b985d5d1a1bdc9a5e995960a21b6044820152606490fd5b8580fd5b83346101de5760203660031901126101de5761086561144c565b61086d611b75565b610875611499565b6001600160a01b031661088781611c7d565b507fba0013628ccb89af5bb18edf764d3a7b35c07b894848b8e6fd3434719de39c7d8280a280f35b9050346102205782600319360112610220576108c9611499565b60fb549060ff82161561090b575060ff191660fb55513381527f5db9ee0a495bf2e6ff9c91a7834c1ba4fdd244a5e8aa4e537bd38aeae4b073aa90602090a180f35b606490602084519162461bcd60e51b8352820152601460248201527314185d5cd8589b194e881b9bdd081c185d5cd95960621b6044820152fd5b9190503461022057602080600319360112610bd05761096261144c565b916001600160a01b037f000000000000000000000000000000000000000000000000000000000000000081169061099b3083141561180d565b6109b8600080516020611d6c83398151915292828454161461186e565b6109c0611499565b84168015610b9e577fbc7cd75a20ee27fd9adebab32041f755214dbc6bffa90cc0225b39da2e5c2d3b9080828980a28351918583019383851067ffffffffffffffff861117610b8b578486528984527f4910fdfa16fed3260ed0e7147f7cc6da11a60208b5b9406d12a635614ffd91435460ff1615610a4a575050505050505061021d91506118cf565b859697939495516352d1902d60e01b815288818b81875afa8b9181610b58575b50610ac957875162461bcd60e51b8152808b018a9052602e60248201527f45524331393637557067726164653a206e657720696d706c656d656e7461746960448201526d6f6e206973206e6f74205555505360901b6064820152608490fd5b98919293949796959803610b035750610ae1836118cf565b8780a285845115801590610afc576106f85750505050505080f35b50806106ea565b845162461bcd60e51b8152908101869052602960248201527f45524331393637557067726164653a20756e737570706f727465642070726f786044820152681a58589b195555525160ba1b6064820152608490fd5b9091508981813d8311610b84575b610b7081836113db565b81010312610b8057519038610a6a565b8b80fd5b503d610b66565b634e487b7160e01b8a526041895260248afd5b825162461bcd60e51b8152808701859052600c60248201526b155b985d5d1a1bdc9a5e995960a21b6044820152606490fd5b8380fd5b83915034610176578260031936011261017657610bef611467565b90336001600160a01b03831603610c0b579061021d9135611797565b608490602085519162461bcd60e51b8352820152602f60248201527f416363657373436f6e74726f6c3a2063616e206f6e6c792072656e6f756e636560448201526e103937b632b9903337b91039b2b63360891b6064820152fd5b9050346102205781600319360112610220573590610c82611467565b908284526065602052610c9a6001828620015461168d565b828452606560209081528185206001600160a01b039093168086529290528084205460ff1615610cc8578380f35b82845260656020528084208285526020528320600160ff1982541617905533917f2f8788117e7eff1d82e926ec794901d17c78024a50270940304540a733656f0d8480a43880808380f35b9050346102205760803660031901126102205780359167ffffffffffffffff918284116110a257366023850112156110a257838101359283116110a2576024933685858301011161084757610d66611467565b946001600160a01b039460443586811693919084900361109e5788549660ff8860081c161595868097611091575b801561107a575b15611021575060019860ff1998878b8b8316178d55611010575b50610de960ff8c5460081c16610dca81611b15565b610dd381611b15565b610ddc81611b15565b8a60fb541660fb55611b15565b8a805260209860658a52888c20878d528a5260ff898d20541615610fc9575b5061012d610e168154611353565b601f8111610f75575b5083868d80601f8411600114610efa5792610eed575b5050600019600386901b1c1916848c1b1790555b16936bffffffffffffffffffffffff60a01b9061012e868382541617905561012f918254161790556064356101305580865193849301833781018881520390209251927f0634d17fb0d9bb4a2f5cf39ce53b64ecdbdf11ff4966e33e7e6140f85caeed718780a3610eb8578380f35b7f7f26b83ff96e1f2b6a682f133852f6798a09c465da95921460cefb38474024989261ff001985541685558152a13880808380f35b8701013590508638610e35565b929091508c8e601f19831691868652600080516020611d8c83398151915295915b838310610f555750505010610f39575b50508a84811b019055610e49565b8601870135600019600387901b60f8161c191690553880610f2b565b9092935084958c8493968d010135815501940192019087918f8f90610f1b565b818d52600080516020611d8c833981519152601f860160051c8101918c8710610fbf575b601f0160051c01908c908e5b838210610fb457505050610e1f565b8155018c908e610fa5565b9091508190610f99565b8b805260658a52888c20878d528a528a898d209182541617905533868c7f2f8788117e7eff1d82e926ec794901d17c78024a50270940304540a733656f0d8180a438610e08565b61ffff1916610101178b5538610db5565b608490602e8660208b519362461bcd60e51b85528401528201527f496e697469616c697a61626c653a20636f6e747261637420697320616c72656160448201526d191e481a5b9a5d1a585b1a5e995960921b6064820152fd5b50303b158015610d9b5750600160ff8a1614610d9b565b50600160ff8a1610610d94565b8880fd5b8480fd5b9050346102205760203660031901126102205781602093600192358152606585522001549051908152f35b5050346101765781600319360112610176578051908261012d908154906110f782611353565b8086529260019280841690811561117a5750600114611130575b61112c8686611122828b03836113db565b5191829182611420565b0390f35b81529450600080516020611d8c8339815191525b8286106111625750505061112282602061112c958201019438611111565b80546020878701810191909152909501948101611144565b905061112c97508693506020925061112294915060ff191682840152151560051b8201019438611111565b83346101de5760203660031901126101de576111bf61144c565b6111c7611b75565b6111cf611499565b61012e80546001600160a01b0319166001600160a01b039290921691821790557f806b1cc63111c088fbfa22d6f907e4ebf76601e49f7ae28277e3d655f6e8e0e78280a280f35b8390346101765760203660031901126101765735611232611b75565b61123a611499565b80610130557f4a4a89136056ef706455b30694ca0a4f801cf986fddab781e07803e5b64a2e7e8280a280f35b5050346101765781600319360112610176578051908261012d9081549061128c82611353565b8086529260019280841690811561117a57506001146112b65761112c8686611122828b03836113db565b81529450600080516020611d8c8339815191525b8286106112e85750505061112282602061112c958201019438611111565b805460208787018101919091529095019481016112ca565b849134610220576020366003190112610220573563ffffffff60e01b81168091036102205760209250637965db0b60e01b8114908115611342575b5015158152f35b6301ffc9a760e01b1490508361133b565b90600182811c92168015611383575b602083101461136d57565b634e487b7160e01b600052602260045260246000fd5b91607f1691611362565b6060810190811067ffffffffffffffff8211176113a957604052565b634e487b7160e01b600052604160045260246000fd5b6080810190811067ffffffffffffffff8211176113a957604052565b90601f8019910116810190811067ffffffffffffffff8211176113a957604052565b60005b8381106114105750506000910152565b8181015183820152602001611400565b6040916020825261144081518092816020860152602086860191016113fd565b601f01601f1916010190565b600435906001600160a01b038216820361146257565b600080fd5b602435906001600160a01b038216820361146257565b67ffffffffffffffff81116113a957601f01601f191660200190565b3360009081527fffdfc1249c027f9191656349feb0761381bb32c9f557e01f419fd08754bf5a1b602090815260408083205490929060ff16156114db57505050565b6114e433611a17565b835190826114f1836113bf565b6042835284830193606036863783511561167957603085538351906001918210156116795790607860218601536041915b81831161160b575050506115c9576115779385936115af936115a06048946115c59951988576020b1b1b2b9b9a1b7b73a3937b61d1030b1b1b7bab73a1604d1b8b9788015282519283916037890191016113fd565b8401917001034b99036b4b9b9b4b733903937b6329607d1b6037840152518093868401906113fd565b010360288101855201836113db565b5162461bcd60e51b815291829160048301611420565b0390fd5b60648486519062461bcd60e51b825280600483015260248201527f537472696e67733a20686578206c656e67746820696e73756666696369656e746044820152fd5b909192600f81166010811015611665576f181899199a1a9b1b9c1cb0b131b232b360811b901a61163b85886119f0565b5360041c92801561165157600019019190611522565b634e487b7160e01b82526011600452602482fd5b634e487b7160e01b83526032600452602483fd5b634e487b7160e01b81526032600452602490fd5b600081815260209060658252604092838220338352835260ff8483205416156116b65750505050565b6116bf33611a17565b8451916116cb836113bf565b6042835284830193606036863783511561167957603085538351906001918210156116795790607860218601536041915b818311611751575050506115c9576115779385936115af936115a06048946115c59951988576020b1b1b2b9b9a1b7b73a3937b61d1030b1b1b7bab73a1604d1b8b9788015282519283916037890191016113fd565b909192600f81166010811015611665576f181899199a1a9b1b9c1cb0b131b232b360811b901a61178185886119f0565b5360041c928015611651576000190191906116fc565b906000918083526065602052604083209160018060a01b03169182845260205260ff6040842054166117c857505050565b8083526065602052604083208284526020526040832060ff1981541690557ff6391f5c32d9c69d2a47ea670b442974b53935d1edc7fd64eb21e047a839171b339380a4565b1561181457565b60405162461bcd60e51b815260206004820152602c60248201527f46756e6374696f6e206d7573742062652063616c6c6564207468726f7567682060448201526b19195b1959d85d1958d85b1b60a21b6064820152608490fd5b1561187557565b60405162461bcd60e51b815260206004820152602c60248201527f46756e6374696f6e206d7573742062652063616c6c6564207468726f7567682060448201526b6163746976652070726f787960a01b6064820152608490fd5b803b1561190457600080516020611d6c83398151915280546001600160a01b0319166001600160a01b03909216919091179055565b60405162461bcd60e51b815260206004820152602d60248201527f455243313936373a206e657720696d706c656d656e746174696f6e206973206e60448201526c1bdd08184818dbdb9d1c9858dd609a1b6064820152608490fd5b919290156119c15750815115611973575090565b3b1561197c5790565b60405162461bcd60e51b815260206004820152601d60248201527f416464726573733a2063616c6c20746f206e6f6e2d636f6e74726163740000006044820152606490fd5b8251909150156119d45750805190602001fd5b60405162461bcd60e51b81529081906115c59060048301611420565b908151811015611a01570160200190565b634e487b7160e01b600052603260045260246000fd5b60405190611a248261138d565b602a8252602082016040368237825115611a0157603090538151600190811015611a0157607860218401536029905b808211611aa7575050611a635790565b606460405162461bcd60e51b815260206004820152602060248201527f537472696e67733a20686578206c656e67746820696e73756666696369656e746044820152fd5b9091600f81166010811015611b00576f181899199a1a9b1b9c1cb0b131b232b360811b901a611ad684866119f0565b5360041c918015611aeb576000190190611a53565b60246000634e487b7160e01b81526011600452fd5b60246000634e487b7160e01b81526032600452fd5b15611b1c57565b60405162461bcd60e51b815260206004820152602b60248201527f496e697469616c697a61626c653a20636f6e7472616374206973206e6f74206960448201526a6e697469616c697a696e6760a81b6064820152608490fd5b60ff60fb5416611b8157565b60405162461bcd60e51b815260206004820152601060248201526f14185d5cd8589b194e881c185d5cd95960821b6044820152606490fd5b6101318054821015611a01576000527fbd987ad6ccdb7c7567f7335ea839f95dc944431abcf935b6924f70215963db730190600090565b906000918083526101329283602052604081205415600014611c78576101319384549468010000000000000000861015611c645783611c54611c3b886001604098999a018555611bb9565b819391549060031b600019811b9283911b169119161790565b9055549382526020522055600190565b634e487b7160e01b83526041600452602483fd5b925050565b60009080825261013290816020526040832054801515600014611d65576000199080820190808211611d515761013191825490848201918211611d3d57808203611d0a575b50505080548015611cf657820191611cd983611bb9565b909182549160031b1b191690555582526020526040812055600190565b634e487b7160e01b86526031600452602486fd5b611d28611d19611c3b93611bb9565b90549060031b1c928392611bb9565b90558652846020526040862055388080611cc2565b634e487b7160e01b88526011600452602488fd5b634e487b7160e01b86526011600452602486fd5b5050509056fe360894a13ba1a3210667c828492db98dca3e2076cc3735a920a3ca505d382bbc193a3ae4da5049eb74cee39e4cf5827f7ce7b1d1d1775ef1c6311eb60558e6d5a2646970667358221220c38018c3441e64c9f0897589ec4f592136cba9480dace031ecd28dbf0bd8620164736f6c63430008110033","linkReferences":{}},"methodIdentifiers":{"DEFAULT_ADMIN_ROLE()":"a217fddf","addInvestor(address)":"e641bde1","admin()":"f851a440","directoryContract()":"72ebc710","getDirectory()":"76247776","getInvestors()":"b2f5a54c","getMetaCID()":"b7eb3bfe","getRoleAdmin(bytes32)":"248a9ca3","getSPVId()":"23ae58da","grantRole(bytes32,address)":"2f2ff15d","hasRole(bytes32,address)":"91d14854","initialize(string,address,address,bytes32)":"2ce21797","isInvestor(address)":"cee2a9cf","metaCID()":"b3d35bc7","pause()":"8456cb59","paused()":"5c975abb","proxiableUUID()":"52d1902d","removeInvestor(address)":"42714978","renounceRole(bytes32,address)":"36568abe","revokeRole(bytes32,address)":"d547741f","spvId()":"0cf3c067","supportsInterface(bytes4)":"01ffc9a7","unpause()":"3f4ba83a","updateDirectory(address)":"21170359","updateMetaCID(bytes32)":"1530c4e5","upgradeTo(address)":"3659cfe6","upgradeToAndCall(address,bytes)":"4f1ef286"},"id":101}