{"abi":[{"type":"function","name":"DEFAULT_ADMIN_ROLE","inputs":[],"outputs":[{"name":"","type":"bytes32","internalType":"bytes32"}],"stateMutability":"view"},{"type":"function","name":"addModuleToToken","inputs":[{"name":"_asset","type":"address","internalType":"address"},{"name":"_module","type":"address","internalType":"address"}],"outputs":[],"stateMutability":"nonpayable"},{"type":"function","name":"addRelayer","inputs":[{"name":"_relayer","type":"address","internalType":"address"}],"outputs":[],"stateMutability":"nonpayable"},{"type":"function","name":"assetImpl","inputs":[],"outputs":[{"name":"","type":"address","internalType":"address"}],"stateMutability":"view"},{"type":"function","name":"assetManagerOf","inputs":[{"name":"asset","type":"address","internalType":"address"}],"outputs":[{"name":"","type":"address","internalType":"address"}],"stateMutability":"view"},{"type":"function","name":"assetMgrImpl","inputs":[],"outputs":[{"name":"","type":"address","internalType":"address"}],"stateMutability":"view"},{"type":"function","name":"assetToModularCompliance","inputs":[{"name":"","type":"address","internalType":"address"}],"outputs":[{"name":"","type":"address","internalType":"address"}],"stateMutability":"view"},{"type":"function","name":"assetToSPVIdHash","inputs":[{"name":"","type":"address","internalType":"address"}],"outputs":[{"name":"","type":"bytes32","internalType":"bytes32"}],"stateMutability":"view"},{"type":"function","name":"assetToSpv","inputs":[{"name":"","type":"address","internalType":"address"}],"outputs":[{"name":"","type":"address","internalType":"address"}],"stateMutability":"view"},{"type":"function","name":"bindToken","inputs":[{"name":"_asset","type":"address","internalType":"address"}],"outputs":[],"stateMutability":"nonpayable"},{"type":"function","name":"deployAsset","inputs":[{"name":"p","type":"tuple","internalType":"struct NexaAssetFactory.DeployAssetParams","components":[{"name":"spvId","type":"string","internalType":"string"},{"name":"assetId","type":"string","internalType":"string"},{"name":"name","type":"string","internalType":"string"},{"name":"symbol","type":"string","internalType":"string"},{"name":"decimals","type":"uint8","internalType":"uint8"},{"name":"totalSupply","type":"uint256","internalType":"uint256"},{"name":"metaCID","type":"bytes32","internalType":"bytes32"},{"name":"spv","type":"address","internalType":"address"},{"name":"assetOwner","type":"address","internalType":"address"},{"name":"lockUpDuration","type":"uint256","internalType":"uint256"},{"name":"tokenPrice","type":"uint256","internalType":"uint256"}]}],"outputs":[{"name":"asset","type":"address","internalType":"address"},{"name":"assetManager","type":"address","internalType":"address"},{"name":"orderManager","type":"address","internalType":"address"}],"stateMutability":"nonpayable"},{"type":"function","name":"directory","inputs":[],"outputs":[{"name":"","type":"address","internalType":"contract INexaDirectory"}],"stateMutability":"view"},{"type":"function","name":"getAsset","inputs":[{"name":"spvIdHash","type":"bytes32","internalType":"bytes32"}],"outputs":[{"name":"","type":"address","internalType":"address"}],"stateMutability":"view"},{"type":"function","name":"getAssetModularCompliance","inputs":[{"name":"asset","type":"address","internalType":"address"}],"outputs":[{"name":"","type":"address","internalType":"address"}],"stateMutability":"view"},{"type":"function","name":"getAssetSPV","inputs":[{"name":"asset","type":"address","internalType":"address"}],"outputs":[{"name":"","type":"address","internalType":"address"}],"stateMutability":"view"},{"type":"function","name":"getRoleAdmin","inputs":[{"name":"role","type":"bytes32","internalType":"bytes32"}],"outputs":[{"name":"","type":"bytes32","internalType":"bytes32"}],"stateMutability":"view"},{"type":"function","name":"getSPVIDHash","inputs":[{"name":"asset","type":"address","internalType":"address"}],"outputs":[{"name":"","type":"bytes32","internalType":"bytes32"}],"stateMutability":"view"},{"type":"function","name":"grantRole","inputs":[{"name":"role","type":"bytes32","internalType":"bytes32"},{"name":"account","type":"address","internalType":"address"}],"outputs":[],"stateMutability":"nonpayable"},{"type":"function","name":"hasRole","inputs":[{"name":"role","type":"bytes32","internalType":"bytes32"},{"name":"account","type":"address","internalType":"address"}],"outputs":[{"name":"","type":"bool","internalType":"bool"}],"stateMutability":"view"},{"type":"function","name":"initialize","inputs":[{"name":"_directory","type":"address","internalType":"address"},{"name":"_asset","type":"address","internalType":"address"},{"name":"_assetMgr","type":"address","internalType":"address"},{"name":"_orderMgr","type":"address","internalType":"address"},{"name":"_admin","type":"address","internalType":"address"},{"name":"_nexaOnchainIdFactory","type":"address","internalType":"address"},{"name":"_nexaIdentityRegistry","type":"address","internalType":"address"}],"outputs":[],"stateMutability":"nonpayable"},{"type":"function","name":"isRelayer","inputs":[{"name":"_relayer","type":"address","internalType":"address"}],"outputs":[{"name":"","type":"bool","internalType":"bool"}],"stateMutability":"view"},{"type":"function","name":"nexaIdentityRegistry","inputs":[],"outputs":[{"name":"","type":"address","internalType":"contract INexaIdentityRegistry"}],"stateMutability":"view"},{"type":"function","name":"nexaOnchainIdFactory","inputs":[],"outputs":[{"name":"","type":"address","internalType":"contract INexaOnchainIdFactory"}],"stateMutability":"view"},{"type":"function","name":"orderManagerOf","inputs":[{"name":"asset","type":"address","internalType":"address"}],"outputs":[{"name":"","type":"address","internalType":"address"}],"stateMutability":"view"},{"type":"function","name":"orderMgrImpl","inputs":[],"outputs":[{"name":"","type":"address","internalType":"address"}],"stateMutability":"view"},{"type":"function","name":"pause","inputs":[],"outputs":[],"stateMutability":"nonpayable"},{"type":"function","name":"paused","inputs":[],"outputs":[{"name":"","type":"bool","internalType":"bool"}],"stateMutability":"view"},{"type":"function","name":"proxiableUUID","inputs":[],"outputs":[{"name":"","type":"bytes32","internalType":"bytes32"}],"stateMutability":"view"},{"type":"function","name":"relayerWhitelist","inputs":[{"name":"","type":"address","internalType":"address"}],"outputs":[{"name":"","type":"bool","internalType":"bool"}],"stateMutability":"view"},{"type":"function","name":"removeModuleFromToken","inputs":[{"name":"_asset","type":"address","internalType":"address"},{"name":"_module","type":"address","internalType":"address"}],"outputs":[],"stateMutability":"nonpayable"},{"type":"function","name":"removeRelayer","inputs":[{"name":"_relayer","type":"address","internalType":"address"}],"outputs":[],"stateMutability":"nonpayable"},{"type":"function","name":"renounceRole","inputs":[{"name":"role","type":"bytes32","internalType":"bytes32"},{"name":"account","type":"address","internalType":"address"}],"outputs":[],"stateMutability":"nonpayable"},{"type":"function","name":"revokeRole","inputs":[{"name":"role","type":"bytes32","internalType":"bytes32"},{"name":"account","type":"address","internalType":"address"}],"outputs":[],"stateMutability":"nonpayable"},{"type":"function","name":"setImpl","inputs":[{"name":"what","type":"string","internalType":"string"},{"name":"impl","type":"address","internalType":"address"}],"outputs":[],"stateMutability":"nonpayable"},{"type":"function","name":"spvIdToAsset","inputs":[{"name":"","type":"bytes32","internalType":"bytes32"}],"outputs":[{"name":"","type":"address","internalType":"address"}],"stateMutability":"view"},{"type":"function","name":"supportsInterface","inputs":[{"name":"interfaceId","type":"bytes4","internalType":"bytes4"}],"outputs":[{"name":"","type":"bool","internalType":"bool"}],"stateMutability":"view"},{"type":"function","name":"unbindToken","inputs":[{"name":"_asset","type":"address","internalType":"address"}],"outputs":[],"stateMutability":"nonpayable"},{"type":"function","name":"unpause","inputs":[],"outputs":[],"stateMutability":"nonpayable"},{"type":"function","name":"upgradeTo","inputs":[{"name":"newImplementation","type":"address","internalType":"address"}],"outputs":[],"stateMutability":"nonpayable"},{"type":"function","name":"upgradeToAndCall","inputs":[{"name":"newImplementation","type":"address","internalType":"address"},{"name":"data","type":"bytes","internalType":"bytes"}],"outputs":[],"stateMutability":"payable"},{"type":"event","name":"AdminChanged","inputs":[{"name":"previousAdmin","type":"address","indexed":false,"internalType":"address"},{"name":"newAdmin","type":"address","indexed":false,"internalType":"address"}],"anonymous":false},{"type":"event","name":"AssetSuiteDeployed","inputs":[{"name":"spvIdHash","type":"bytes32","indexed":true,"internalType":"bytes32"},{"name":"assetId","type":"bytes32","indexed":true,"internalType":"bytes32"},{"name":"asset","type":"address","indexed":true,"internalType":"address"},{"name":"assetManager","type":"address","indexed":false,"internalType":"address"},{"name":"orderManager","type":"address","indexed":false,"internalType":"address"}],"anonymous":false},{"type":"event","name":"BeaconUpgraded","inputs":[{"name":"beacon","type":"address","indexed":true,"internalType":"address"}],"anonymous":false},{"type":"event","name":"ImplUpdated","inputs":[{"name":"what","type":"string","indexed":true,"internalType":"string"},{"name":"impl","type":"address","indexed":true,"internalType":"address"}],"anonymous":false},{"type":"event","name":"Initialized","inputs":[{"name":"admin","type":"address","indexed":true,"internalType":"address"}],"anonymous":false},{"type":"event","name":"Initialized","inputs":[{"name":"version","type":"uint8","indexed":false,"internalType":"uint8"}],"anonymous":false},{"type":"event","name":"Paused","inputs":[{"name":"account","type":"address","indexed":false,"internalType":"address"}],"anonymous":false},{"type":"event","name":"RoleAdminChanged","inputs":[{"name":"role","type":"bytes32","indexed":true,"internalType":"bytes32"},{"name":"previousAdminRole","type":"bytes32","indexed":true,"internalType":"bytes32"},{"name":"newAdminRole","type":"bytes32","indexed":true,"internalType":"bytes32"}],"anonymous":false},{"type":"event","name":"RoleGranted","inputs":[{"name":"role","type":"bytes32","indexed":true,"internalType":"bytes32"},{"name":"account","type":"address","indexed":true,"internalType":"address"},{"name":"sender","type":"address","indexed":true,"internalType":"address"}],"anonymous":false},{"type":"event","name":"RoleRevoked","inputs":[{"name":"role","type":"bytes32","indexed":true,"internalType":"bytes32"},{"name":"account","type":"address","indexed":true,"internalType":"address"},{"name":"sender","type":"address","indexed":true,"internalType":"address"}],"anonymous":false},{"type":"event","name":"Unpaused","inputs":[{"name":"account","type":"address","indexed":false,"internalType":"address"}],"anonymous":false},{"type":"event","name":"Upgraded","inputs":[{"name":"implementation","type":"address","indexed":true,"internalType":"address"}],"anonymous":false},{"type":"error","name":"BadOrder","inputs":[]},{"type":"error","name":"DeployFail","inputs":[]},{"type":"error","name":"EmptyString","inputs":[]},{"type":"error","name":"SPVNotFound","inputs":[]},{"type":"error","name":"StringTooLong","inputs":[]},{"type":"error","name":"ZeroAddress","inputs":[]}],"bytecode":{"object":"0x60a0806040523461003157306080526147229081610037823960805181818161147a015281816115830152611a280152f35b600080fdfe60808060405260043610156200001457600080fd5b600090813560e01c90816301ffc9a7146200229d5750806315467d52146200220d5780631acdf4d714620014245780631ff1fcae14620021e1578063248a9ca314620021b25780632cc3ce8014620011925780632f2ff15d14620020f3578063358764761462001da257806336568abe1462001d085780633659cfe614620019ff5780633f4ba83a14620019655780633ff5aa0214620018e957806340db3b5014620018695780634f1ef286146200152d57806352d1902d1462001465578063541d55481462000f875780635aa326c714620014245780635c975abb14620013ff57806360d8c5ba14620013d357806360f0a5ac146200138b578063703f6c5d14620012ef5780638456cb59146200128e5780638e2a24521462000ddb578063917432f7146200126257806391d1485414620012125780639a8b588c14620011e6578063a217fddf14620011c8578063a811933a1462001192578063a9f7e5461462000fcb578063ad5dd7ed1462000f87578063bac107e61462000f49578063c1c68c221462000f49578063c41c2f241462000f1d578063cd6bdd7a1462000edc578063cf51bc0f1462000eb0578063d547741f1462000e67578063dd39f00d1462000e1c578063f4753be81462000ddb578063f71f5a0d14620002455763f9a53e74146200020257600080fd5b346200024257602036600319011262000242576020906001600160a01b0390604090826200022f620022f7565b1681526101678452205416604051908152f35b80fd5b50346200024257602036600319011262000242576001600160401b036004351162000242576101606004353603600319011262000242576200028662002bfe565b600261012d541462000d9657600261012d558080526065602052604081203360005260205260ff60406000205416801562000d0f575b1562000cd457620002d260048035018062002b63565b8091501562000cc2576101001062000cb057620002fa60246004350160043560040162002b63565b8091501562000cc2576101001062000cb0576200032260446004350160043560040162002b63565b8091501562000cc2576101001062000cb0576200034a60646004350160043560040162002b63565b8091501562000cc2576101001062000cb0576001600160a01b036200037460043560e40162002b98565b161562000c9e576001600160a01b03620003946004356101040162002b98565b161562000c8c57620003b7620003af60048035018062002b63565b3691620023af565b60208151910120620003d8620003af60246004350160043560040162002b63565b60208151910120801562000c7a5781835261016860205260408320546001600160a01b031662000c7a57604051806115f28101106001600160401b036115f28301111762000c66576115f262002cc58239806115f28101039084f090811562000c5b576001600160a01b0382163b1562000c57576040516370e39c9560e11b815284908181600481836001600160a01b0389165af1801562000b695762000c3f575b50506101635460405163bc4d861b60e01b815290602090829060049082906001600160a01b03165afa801562000c3457620005d991869162000c10575b50610160546001600160a01b0316620005d3620004dd6004803560448101910162002b63565b9093620004f560646004350160043560040162002b63565b909160ff6200055e6200050d60846004350162002bce565b946200051f6101046004350162002b98565b946200054b6040519b8c996302aaad4160e41b60208c015261016060248c01526101848b019162002bdd565b8881036023190160448a01529162002bdd565b9316606485015260043560a48181013560848701526001600160a01b03928316908601528a821660c4808701919091529290911660e4850152908101356101048401523061012480850191909152810135610144808501919091520135610164830152819003601f1981019091528362002371565b62002c43565b6101645490939085906001600160a01b03166020620005fe6004356101040162002b98565b916200061560246004350160043560040162002b63565b6040516342d4e3a960e11b81526001600160a01b03808c1660048301529095166024860152606060448601528492918391879183916200065b9160648401919062002bdd565b03925af190811562000b6957829162000bda575b506001600160a01b0386163b1562000b4d57604051633d1ddc5b60e01b81526001600160a01b0391821660048201529082908290602490829084908b165af1801562000b695762000bbe575b505061016154620007a4906001600160a01b0316620006df60043560e40162002b98565b90620005d3620006f460048035018062002b63565b9390620007776200071060246004350160043560040162002b63565b62000764620007256101046004350162002b98565b604051632a9df24160e11b60208201523360248201526001600160a01b03909716604488015260e0606488015295988996956101048801919062002bdd565b8581036023190160848701529162002bdd565b6001600160a01b0391821660a4840152908a1660c48301523060e483015203601f19810184528362002371565b916001600160a01b0385163b1562000b3e5785604051636d8d0ff360e01b815260018060a01b038516600482015260a46004350135602482015281816044818360018060a01b038c165af1801562000b695762000ba6575b5050610162546001600160a01b03166200081c6004356101040162002b98565b604051630a2ca2bd60e11b60208201526001600160a01b038881166024830152868116604483015290911660648201523360848201523060a48083019190915281526001600160401b0360e082019081119082111762000b9057620008889160e0820160405262002c43565b6101635490949087906001600160a01b0316803b1562000b4d5760405163aec1e0e760e01b81526001600160a01b03891660048201529082908290602490829084905af1801562000b695762000b78575b50506001600160a01b0386811680895261016960209081526040808b2080546001600160a01b03199081169686169690961790556101658252808b20879055868b526101688252808b208054861684179055918a526101668152818a20805485168885161790556101679052882080549092168682161790915561015f548791166200096e6004803560448101910162002b63565b6200098760646004949394350160043560040162002b63565b92906200099960846004350162002bce565b90823b1562000b745787899260ff620009f98a98948995620009e66040519c8d9b8c9a8b99637caad15960e11b8b5260048b015260248a015261010060448a015261010489019162002bdd565b8681036003190160648801529162002bdd565b9116608483015260043560a4818101359084015260c490810135908301526001600160a01b038e1660e483015203925af1801562000b695762000b51575b5061015f546001600160a01b0316803b1562000b4d578190604460405180948193637885a68360e01b83528860048401528760248401525af1801562000b425762000b26575b50606095604062000a9360e46004350162002b98565b6001600160a01b0388811680855261016a60209081529390942080546001600160a01b03191692821692909217909155604080518783168152918816928201929092529193917fd1e01b2fc5b3f54592b283f7e108d2e290a9471ac0834916cd373fe33da42d319190a4600161012d55604080516001600160a01b03948516815291841660208301529190921690820152f35b62000b32879162002325565b62000b3e573862000a7d565b8580fd5b6040513d89823e3d90fd5b5080fd5b62000b5c9062002325565b62000b3e57853862000a37565b6040513d84823e3d90fd5b8680fd5b62000b839062002325565b62000b74578638620008d9565b634e487b7160e01b600052604160045260246000fd5b62000bb19062002325565b62000b3e578538620007fc565b62000bc99062002325565b62000bd6578438620006bb565b8480fd5b62000c01915060203d60201162000c08575b62000bf8818362002371565b81019062002bad565b386200066f565b503d62000bec565b62000c2d915060203d60201162000c085762000bf8818362002371565b38620004b7565b6040513d87823e3d90fd5b62000c4a9062002325565b62000c575783386200047a565b8380fd5b6040513d85823e3d90fd5b634e487b7160e01b84526041600452602484fd5b604051631318586d60e31b8152600490fd5b60405163d92e233d60e01b8152600490fd5b604051634132ccaf60e11b8152600490fd5b604051631623655b60e31b8152600490fd5b60405163ecd7b0d160e01b8152600490fd5b60405162461bcd60e51b81526020600482015260136024820152722ab730baba3437b934bd32b21031b0b63632b960691b6044820152606490fd5b5061015f546040516347efd7ff60e01b815233600482015290602090829060249082906001600160a01b03165afa90811562000b6957829162000d54575b50620002bc565b90506020813d60201162000d8d575b8162000d726020938362002371565b8101031262000b4d5751801515810362000b4d573862000d4d565b3d915062000d63565b60405162461bcd60e51b815260206004820152601f60248201527f5265656e7472616e637947756172643a207265656e7472616e742063616c6c006044820152606490fd5b50346200024257602036600319011262000242576020906001600160a01b03906040908262000e09620022f7565b1681526101698452205416604051908152f35b503462000242576020366003190112620002425762000e3a620022f7565b62000e44620023eb565b6001600160a01b0316815261016b60205260408120805460ff1916600117905580f35b503462000242576040366003190112620002425762000ead60043562000e8c6200230e565b90808452606560205262000ea76001604086200154620025fb565b62002765565b80f35b50346200024257806003193601126200024257610163546040516001600160a01b039091168152602090f35b50346200024257602036600319011262000242576020906001600160a01b03906040908262000f0a620022f7565b1681526101668452205416604051908152f35b5034620002425780600319360112620002425761015f546040516001600160a01b039091168152602090f35b50346200024257602036600319011262000242576020906040906001600160a01b0362000f75620022f7565b16815261016583522054604051908152f35b503462000242576020366003190112620002425760209060ff906040906001600160a01b0362000fb6620022f7565b16815261016b84522054166040519015158152f35b50346200024257604036600319011262000242576004356001600160401b038082116200118e57366023830112156200118e5781600401359081116200118e57602482019160248236920101116200118e57620010276200230e565b6200103162002bfe565b6200103b620023eb565b6001600160a01b031691821562000c8c5762001059368383620023af565b602081519101207f0bd4060688a1800ae986e4840aebc924bb40b5bf44de4583df2257220b54b77c8114600014620010d8575061016080546001600160a01b031916841790555b81604051928392833781018481520390207f9a4b883373180089cc081c644a561eba93e149b8967d1218caa52e26849aaa218380a380f35b7f9c94184d91f4f379375bc02dabb446ab73b4693daaa1649948930b3bc1c8e06c81036200111a575061016180546001600160a01b03191684179055620010a0565b7fb50e715166021fbc71164341f755e1a7eec682757ada7427de0b77e112ecfe90036200115a5761016280546001600160a01b03191684179055620010a0565b60405162461bcd60e51b815260206004820152600c60248201526b556e6b6e6f776e207479706560a01b6044820152606490fd5b8280fd5b503462000242576020366003190112620002425760209060043581526101688252604060018060a01b0391205416604051908152f35b50346200024257806003193601126200024257602090604051908152f35b50346200024257806003193601126200024257610164546040516001600160a01b039091168152602090f35b50346200024257604036600319011262000242576040620012326200230e565b9160043581526065602052209060018060a01b0316600052602052602060ff604060002054166040519015158152f35b50346200024257806003193601126200024257610162546040516001600160a01b039091168152602090f35b50346200024257806003193601126200024257620012ab620023eb565b620012b562002bfe565b600160ff1960fb54161760fb557f62e78cea01bee320cd4e420270b5ea74000d11b0c9f74754ebdbfc544b05a2586020604051338152a180f35b5034620002425760403660031901126200024257806200130e620022f7565b620013186200230e565b62001322620023eb565b6001600160a01b0391821683526101696020526040832054821691823b1562001386576024849283604051958694859363a063246160e01b85521660048401525af1801562000b6957620013735750f35b6200137e9062002325565b620002425780f35b505050fd5b5034620002425760203660031901126200024257620013a9620022f7565b620013b3620023eb565b6001600160a01b0316815261016b60205260408120805460ff1916905580f35b50346200024257806003193601126200024257610161546040516001600160a01b039091168152602090f35b50346200024257806003193601126200024257602060ff60fb54166040519015158152f35b50346200024257602036600319011262000242576020906001600160a01b03906040908262001452620022f7565b16815261016a8452205416604051908152f35b503462000242578060031936011262000242577f00000000000000000000000000000000000000000000000000000000000000006001600160a01b03163003620014c2576020604051600080516020620046cd8339815191528152f35b60405162461bcd60e51b815260206004820152603860248201527f555550535570677261646561626c653a206d757374206e6f742062652063616c60448201527f6c6564207468726f7567682064656c656761746563616c6c00000000000000006064820152608490fd5b506040366003190112620002425762001545620022f7565b6024356001600160401b0381116200118e57366023820112156200118e5762001579903690602481600401359101620023af565b6001600160a01b037f00000000000000000000000000000000000000000000000000000000000000008116929190620015b530851415620027dc565b620015d5600080516020620046cd8339815191529482865416146200283e565b620015df620023eb565b8216801562001833577fbc7cd75a20ee27fd9adebab32041f755214dbc6bffa90cc0225b39da2e5c2d3b81818780a27f4910fdfa16fed3260ed0e7147f7cc6da11a60208b5b9406d12a635614ffd91435460ff1615620016485750505062000ead9150620028a0565b6040516352d1902d60e01b8152602095908681600481875afa60009181620017fe575b50620016cd5760405162461bcd60e51b815260048101889052602e60248201527f45524331393637557067726164653a206e657720696d706c656d656e7461746960448201526d6f6e206973206e6f74205555505360901b6064820152608490fd5b9593949503620017a757620016e285620028a0565b600080a28151158015906200179e575b620016fe575b50505080f35b6200178a9260008060405194620017158662002339565b602786527f416464726573733a206c6f772d6c6576656c2064656c65676174652063616c6c85870152660819985a5b195960ca1b60408701528481519101845af4903d1562001794573d6200176a8162002393565b906200177a604051928362002371565b8152600081943d92013e62002932565b50388080620016f8565b6060925062002932565b506001620016f2565b60405162461bcd60e51b815260048101849052602960248201527f45524331393637557067726164653a20756e737570706f727465642070726f786044820152681a58589b195555525160ba1b6064820152608490fd5b90918882813d83116200182b575b62001818818362002371565b810103126200024257505190386200166b565b503d6200180c565b60405162461bcd60e51b815260206004820152600e60248201526d43616e6e6f74206265205a65726f60901b6044820152606490fd5b50346200024257602036600319011262000242578062001888620022f7565b62001892620023eb565b6001600160a01b03908116808352610169602052604083205490911690813b15620018e557829160248392604051948593849263040db3b560e41b845260048401525af1801562000b6957620013735750f35b5050fd5b50346200024257602036600319011262000242578062001908620022f7565b62001912620023eb565b6001600160a01b03908116808352610169602052604083205490911690813b15620018e5578291602483926040519485938492631ffad50160e11b845260048401525af1801562000b6957620013735750f35b5034620002425780600319360112620002425762001982620023eb565b60fb5460ff811615620019c35760ff191660fb557f5db9ee0a495bf2e6ff9c91a7834c1ba4fdd244a5e8aa4e537bd38aeae4b073aa6020604051338152a180f35b60405162461bcd60e51b815260206004820152601460248201527314185d5cd8589b194e881b9bdd081c185d5cd95960621b6044820152606490fd5b5034620002425760208060031936011262000b4d5762001a1e620022f7565b6001600160a01b037f000000000000000000000000000000000000000000000000000000000000000081169062001a5830831415620027dc565b62001a78600080516020620046cd8339815191529282845416146200283e565b62001a82620023eb565b8216801562001cd2577fbc7cd75a20ee27fd9adebab32041f755214dbc6bffa90cc0225b39da2e5c2d3b9080828780a260405191858301938385106001600160401b0386111762000b90578460405287845260ff7f4910fdfa16fed3260ed0e7147f7cc6da11a60208b5b9406d12a635614ffd9143541660001462001b1257505050505062000ead9150620028a0565b6040516352d1902d60e01b8152949593948781600481875afa6000918162001c9d575b5062001b975760405162461bcd60e51b815260048101899052602e60248201527f45524331393637557067726164653a206e657720696d706c656d656e7461746960448201526d6f6e206973206e6f74205555505360901b6064820152608490fd5b969495960362001c465762001bac83620028a0565b600080a282511580159062001c3d575b62001bc9575b5050505080f35b60008062001c32956040519562001be08762002339565b602787527f416464726573733a206c6f772d6c6576656c2064656c65676174652063616c6c86880152660819985a5b195960ca1b60408801525190845af4903d1562001794573d6200176a8162002393565b503880808062001bc2565b50600062001bbc565b60405162461bcd60e51b815260048101859052602960248201527f45524331393637557067726164653a20756e737570706f727465642070726f786044820152681a58589b195555525160ba1b6064820152608490fd5b90918982813d831162001cca575b62001cb7818362002371565b8101031262000242575051903862001b35565b503d62001cab565b60405162461bcd60e51b815260048101859052600e60248201526d43616e6e6f74206265205a65726f60901b6044820152606490fd5b503462000242576040366003190112620002425762001d266200230e565b336001600160a01b0382160362001d455762000ead9060043562002765565b60405162461bcd60e51b815260206004820152602f60248201527f416363657373436f6e74726f6c3a2063616e206f6e6c792072656e6f756e636560448201526e103937b632b9903337b91039b2b63360891b6064820152608490fd5b5034620002425760e0366003190112620002425762001dc0620022f7565b62001dca6200230e565b6044356001600160a01b038181169291839003620020ee5760643592818416809403620020ee5760843593828516809503620020ee5760a43590838216809203620020ee5760c43592848416809403620020ee5788549560ff8760081c16159889809a620020e0575b8015620020c7575b156200206b5760ff198881166001178c55978791908b62002059575b5062001ea960ff8d5460081c1662001e6f8162002b02565b62001e7a8162002b02565b62001e858162002b02565b62001e908162002b02565b8a60fb541660fb5562001ea38162002b02565b62002b02565b600161012d551695861580156200204e575b801562002045575b80156200203c575b801562002033575b62000c8c5761015f80546001600160a01b031990811690981790556101608054881691909216179055610161805486169091179055610162805485169091179055610164805484169091179055610163805490921617905560008281527fffdfc1249c027f9191656349feb0761381bb32c9f557e01f419fd08754bf5a1b602052604090205460ff161562001fcc575b505060405190337f908408e307fc569b417f6cbec5d5a06f44a0a505ac0479b47d421a4b2fd6a1e68480a262001f97575080f35b60207f7f26b83ff96e1f2b6a682f133852f6798a09c465da95921460cefb38474024989161ff0019845416845560018152a180f35b60008281527fffdfc1249c027f9191656349feb0761381bb32c9f557e01f419fd08754bf5a1b6020526040812080549092166001179091553391907f2f8788117e7eff1d82e926ec794901d17c78024a50270940304540a733656f0d8180a4388062001f63565b50881562001ed3565b50831562001ecb565b50821562001ec3565b508082161562001ebb565b61ffff1916610101178c553862001e57565b60405162461bcd60e51b815260206004820152602e60248201527f496e697469616c697a61626c653a20636f6e747261637420697320616c72656160448201526d191e481a5b9a5d1a585b1a5e995960921b6064820152608490fd5b50303b15801562001e3b5750600160ff89161462001e3b565b50600160ff89161062001e33565b600080fd5b5034620002425760403660031901126200024257600435620021146200230e565b81835260656020526200212e6001604085200154620025fb565b81600052606560205260406000209060018060a01b0316908160005260205260ff604060002054161562002160578280f35b8160005260656020526040600020816000526020526040600020600160ff1982541617905533917f2f8788117e7eff1d82e926ec794901d17c78024a50270940304540a733656f0d600080a438808280f35b503462000242576020366003190112620002425760016040602092600435815260658452200154604051908152f35b50346200024257806003193601126200024257610160546040516001600160a01b039091168152602090f35b50346200024257604036600319011262000242576200222b620022f7565b81620022366200230e565b9162002241620023eb565b6001600160a01b0390811682526101696020526040822054811692833b156200118e57602490836040519586948593631ed86f1960e01b85521660048401525af1801562000b695762002292575080f35b62000ead9062002325565b90503462000b4d57602036600319011262000b4d5760043563ffffffff60e01b81168091036200118e5760209250637965db0b60e01b8114908115620022e5575b5015158152f35b6301ffc9a760e01b14905038620022de565b600435906001600160a01b0382168203620020ee57565b602435906001600160a01b0382168203620020ee57565b6001600160401b03811162000b9057604052565b606081019081106001600160401b0382111762000b9057604052565b608081019081106001600160401b0382111762000b9057604052565b90601f801991011681019081106001600160401b0382111762000b9057604052565b6001600160401b03811162000b9057601f01601f191660200190565b929192620023bd8262002393565b91620023cd604051938462002371565b829481845281830111620020ee578281602093846000960137010152565b3360009081527fffdfc1249c027f9191656349feb0761381bb32c9f557e01f419fd08754bf5a1b602090815260408083205490929060ff16156200242e57505050565b6200243933620029f9565b9080845190620024498262002355565b60428252848201926060368537825115620025e75760308453825190600191821015620025e75790607860218501536041915b8183116200257457505050620025325760486200252e938693620025119362002501985198899376020b1b1b2b9b9a1b7b73a3937b61d1030b1b1b7bab73a1604d1b8a860152620024d7815180928c60378901910162002719565b8401917001034b99036b4b9b9b4b733903937b6329607d1b60378401525180938684019062002719565b0103602881018752018562002371565b5192839262461bcd60e51b8452600484015260248301906200273e565b0390fd5b60648486519062461bcd60e51b825280600483015260248201527f537472696e67733a20686578206c656e67746820696e73756666696369656e746044820152fd5b909192600f81166010811015620025d3576f181899199a1a9b1b9c1cb0b131b232b360811b901a620025a78587620029d1565b5360041c928015620025bf576000190191906200247c565b634e487b7160e01b82526011600452602482fd5b634e487b7160e01b83526032600452602483fd5b634e487b7160e01b81526032600452602490fd5b60009080825260209060658252604092838120338252835260ff848220541615620026265750505050565b6200263133620029f9565b91845190620026408262002355565b60428252848201926060368537825115620025e75760308453825190600191821015620025e75790607860218501536041915b818311620026ce57505050620025325760486200252e938693620025119362002501985198899376020b1b1b2b9b9a1b7b73a3937b61d1030b1b1b7bab73a1604d1b8a860152620024d7815180928c60378901910162002719565b909192600f81166010811015620025d3576f181899199a1a9b1b9c1cb0b131b232b360811b901a620027018587620029d1565b5360041c928015620025bf5760001901919062002673565b60005b8381106200272d5750506000910152565b81810151838201526020016200271c565b90602091620027598151809281855285808601910162002719565b601f01601f1916010190565b906000918083526065602052604083209160018060a01b03169182845260205260ff6040842054166200279757505050565b8083526065602052604083208284526020526040832060ff1981541690557ff6391f5c32d9c69d2a47ea670b442974b53935d1edc7fd64eb21e047a839171b339380a4565b15620027e457565b60405162461bcd60e51b815260206004820152602c60248201527f46756e6374696f6e206d7573742062652063616c6c6564207468726f7567682060448201526b19195b1959d85d1958d85b1b60a21b6064820152608490fd5b156200284657565b60405162461bcd60e51b815260206004820152602c60248201527f46756e6374696f6e206d7573742062652063616c6c6564207468726f7567682060448201526b6163746976652070726f787960a01b6064820152608490fd5b803b15620028d757600080516020620046cd83398151915280546001600160a01b0319166001600160a01b03909216919091179055565b60405162461bcd60e51b815260206004820152602d60248201527f455243313936373a206e657720696d706c656d656e746174696f6e206973206e60448201526c1bdd08184818dbdb9d1c9858dd609a1b6064820152608490fd5b9192901562002997575081511562002948575090565b3b15620029525790565b60405162461bcd60e51b815260206004820152601d60248201527f416464726573733a2063616c6c20746f206e6f6e2d636f6e74726163740000006044820152606490fd5b825190915015620029ab5750805190602001fd5b60405162461bcd60e51b8152602060048201529081906200252e9060248301906200273e565b908151811015620029e3570160200190565b634e487b7160e01b600052603260045260246000fd5b6040519062002a088262002339565b602a8252602082016040368237825115620029e357603090538151600190811015620029e357607860218401536029905b80821162002a8f57505062002a4b5790565b606460405162461bcd60e51b815260206004820152602060248201527f537472696e67733a20686578206c656e67746820696e73756666696369656e746044820152fd5b9091600f8116601081101562002aed576f181899199a1a9b1b9c1cb0b131b232b360811b901a62002ac18486620029d1565b5360041c91801562002ad857600019019062002a39565b60246000634e487b7160e01b81526011600452fd5b60246000634e487b7160e01b81526032600452fd5b1562002b0a57565b60405162461bcd60e51b815260206004820152602b60248201527f496e697469616c697a61626c653a20636f6e7472616374206973206e6f74206960448201526a6e697469616c697a696e6760a81b6064820152608490fd5b903590601e1981360301821215620020ee57018035906001600160401b038211620020ee57602001918136038313620020ee57565b356001600160a01b0381168103620020ee5790565b90816020910312620020ee57516001600160a01b0381168103620020ee5790565b3560ff81168103620020ee5790565b908060209392818452848401376000828201840152601f01601f1916010190565b60ff60fb541662002c0b57565b60405162461bcd60e51b815260206004820152601060248201526f14185d5cd8589b194e881c185d5cd95960821b6044820152606490fd5b906040519061041690818301908382106001600160401b0383111762000b9057604062002c8e928594620042b786396001600160a01b0396871681526020810182905201906200273e565b03906000f0801562002cb8571690813b1562002ca657565b604051637b8b46a760e01b8152600490fd5b6040513d6000823e3d90fdfe60808060405234610016576115d6908161001c8239f35b600080fdfe60806040526004361015610013575b600080fd5b60003560e01c80631ed86f19146101535780633ff5aa021461014a57806340db3b50146101415780635f8dead3146101385780636a3edf281461012f578063715018a6146101265780638baf29b41461011d5780638d2ea772146101145780638da5cb5b1461010b578063a063246114610102578063a446d49f146100f9578063b2494df3146100f0578063e1c7392a146100e7578063e46638e6146100de578063efb22d33146100d55763f2fde38b146100cd57600080fd5b61000e610c75565b5061000e610c0b565b5061000e610be7565b5061000e610b03565b5061000e610a3b565b5061000e6109fb565b5061000e610883565b5061000e610859565b5061000e6107af565b5061000e6106ed565b5061000e610656565b5061000e61062c565b5061000e61051b565b5061000e610429565b5061000e610373565b5061000e610172565b600435906001600160a01b038216820361000e57565b503461000e5760208060031936011261000e5761018d61015c565b6101956114ff565b6001600160a01b038116916101ab831515610db2565b6101e06101db6101d76101d08560018060a01b03166000526067602052604060002090565b5460ff1690565b1590565b610dfe565b6101ef60186066541115610e41565b60405163e6f5e80760e01b81528181600481875afa908115610366575b600091610349575b50156102d2575b50813b1561000e576040516312a4c95160e21b8152306004820152610285916102789160008160248183895af180156102c5575b6102ac575b5061025e81610fd1565b6001600160a01b0316600090815260676020526040902090565b805460ff19166001179055565b7fead6a006345da1073a106d5f32372d2d2204f46cb0b4bca8f5ebafcbbed12b8a600080a2005b806102b96102bf92610ea4565b80610621565b38610254565b6102cd610eff565b61024f565b60405163bcc2105360e01b815230600482015261030991908181602481885afa91821561033c575b60009261030f575b5050610f0c565b3861021b565b61032e9250803d10610335575b6103268183610ec5565b810190610ee7565b3880610302565b503d61031c565b610344610eff565b6102fa565b6103609150823d8411610335576103268183610ec5565b38610214565b61036e610eff565b61020c565b503461000e57602036600319011261000e577f2de35142b19ed5a07796cf30791959c592018f70b1d2d7c460eef8ffe713692b61040c6103b161015c565b6033546001600160a01b0390811633148015610411575b6103d190610d66565b81166103de811515610db2565b606580546001600160a01b0319169190911790556040516001600160a01b0390911681529081906020820190565b0390a1005b5080606554161580156103c8575033828216146103c8565b503461000e57602036600319011261000e5761044361015c565b6033546001600160a01b0390811633148015610510575b61046390610d66565b606554828216911681036104cb577f28a4ca7134a3b3f9aff286e79ad3daadb4a06d1b43d037a3a98bdc074edd9b7a916104a161040c921515610db2565b606580546001600160a01b03191690556040516001600160a01b0390911681529081906020820190565b60405162461bcd60e51b815260206004820152601760248201527f5468697320746f6b656e206973206e6f7420626f756e640000000000000000006044820152606490fd5b50338282161461045a565b503461000e5760408060031936011261000e5761053661015c565b906024359161055d60018060a01b036105548160655416331461115d565b82161515610db2565b610568831515611233565b6066549160005b83811061057857005b6105ab61059f61059f61058a84610f8c565b905460039190911b1c6001600160a01b031690565b6001600160a01b031690565b90813b1561000e57825163f104a8c960e01b81526001600160a01b0385166004820152602481018790526105fc926000908290818381604481015b03925af18015610614575b610601575b506110ac565b61056f565b806102b961060e92610ea4565b386105f6565b61061c610eff565b6105f1565b600091031261000e57565b503461000e57600036600319011261000e576065546040516001600160a01b039091168152602090f35b503461000e576000806003193601126106b5576106716114ff565b603380546001600160a01b0319811690915581906001600160a01b03167f8be0079c531659141344cd1fd0a4f28419497f9722a3daafe3b4186f6b6457e08280a380f35b80fd5b606090600319011261000e576001600160a01b0390600435828116810361000e5791602435908116810361000e579060443590565b503461000e576106fc366106b8565b919061072960018060a01b036107178160655416331461115d565b808416151590816107a3575b50610db2565b6107348315156111db565b6066549160005b83811061074457005b61075661059f61059f61058a84610f8c565b90813b1561000e57604051630b2df87b60e21b81526001600160a01b038085166004830152851660248201526044810187905261079e926000908290818381606481016105e6565b61073b565b90508216151538610723565b503461000e5760408060031936011261000e576107ca61015c565b90602435916107e860018060a01b036105548160655416331461115d565b6107f383151561127e565b6066549160005b83811061080357005b61081561059f61059f61058a84610f8c565b90813b1561000e578251631b9248d160e11b81526001600160a01b038516600482015260248101879052610854926000908290818381604481016105e6565b6107fa565b503461000e57600036600319011261000e576033546040516001600160a01b039091168152602090f35b503461000e57602036600319011261000e5761089d61015c565b6108a56114ff565b6001600160a01b038116906108bb821515610db2565b6001600160a01b03811660009081526067602052604090206108e5906108e0906101d0565b611056565b60665460005b8181106108f457005b8361090461059f61058a84610f8c565b1461091757610912906110ac565b6108eb565b9091833b1561000e57604051630694a5fb60e01b81523060048201526109b4936109aa936109a292909161097e916109789161058a9161097391906000818d8183816024810103925af180156109ee575b6109db575b506110c8565b610f8c565b91610f8c565b90919082549060031b9160018060a01b039283811b93849216901b16911916179055565b61025e6110e1565b805460ff19169055565b7f0a1ee69f55c33d8467c69ca59ce2007a737a88603d75392972520bf67cb513b8600080a2005b806102b96109e892610ea4565b3861096d565b6109f6610eff565b610968565b503461000e57602036600319011261000e576001600160a01b03610a1d61015c565b166000526067602052602060ff604060002054166040519015158152f35b503461000e576000806003193601126106b55760405180916066549081835260208093018092606683527f46501879b8ca8525e8c2fd519e2fbfcfa2ebea26501294aa02cbfcfb12e9435490835b818110610ae65750505084610a9f910385610ec5565b60405193838594850191818652518092526040850193925b828110610ac657505050500390f35b83516001600160a01b031685528695509381019392810192600101610ab7565b82546001600160a01b031684529286019260019283019201610a89565b503461000e576000806003193601126106b5578054610b3960ff8260081c161580928193610bd9575b8115610bb9575b50610d03565b80610b4c600160ff196000541617600055565b610ba0575b610b596114dc565b610b605780f35b610b7061ff001960005416600055565b604051600181527f7f26b83ff96e1f2b6a682f133852f6798a09c465da95921460cefb384740249890602090a180f35b610bb461010061ff00196000541617600055565b610b51565b303b15915081610bcb575b5038610b33565b6001915060ff161438610bc4565b600160ff8216109150610b2c565b503461000e576020610c01610bfb366106b8565b916113a6565b6040519015158152f35b503461000e57604036600319011261000e5760043567ffffffffffffffff80821161000e573660238301121561000e57816004013590811161000e57366024828401011161000e57602435906001600160a01b038216820361000e576024610c7393016112c9565b005b503461000e57602036600319011261000e57610c8f61015c565b610c976114ff565b6001600160a01b03811615610caf57610c7390611557565b60405162461bcd60e51b815260206004820152602660248201527f4f776e61626c653a206e6577206f776e657220697320746865207a65726f206160448201526564647265737360d01b6064820152608490fd5b15610d0a57565b60405162461bcd60e51b815260206004820152602e60248201527f496e697469616c697a61626c653a20636f6e747261637420697320616c72656160448201526d191e481a5b9a5d1a585b1a5e995960921b6064820152608490fd5b15610d6d57565b60405162461bcd60e51b815260206004820152601c60248201527f6f6e6c79206f776e6572206f7220746f6b656e2063616e2063616c6c000000006044820152606490fd5b15610db957565b60405162461bcd60e51b815260206004820152601f60248201527f696e76616c696420617267756d656e74202d207a65726f2061646472657373006044820152606490fd5b15610e0557565b60405162461bcd60e51b81526020600482015260146024820152731b5bd91d5b1948185b1c9958591e48189bdd5b9960621b6044820152606490fd5b15610e4857565b60405162461bcd60e51b815260206004820152601f60248201527f63616e6e6f7420616464206d6f7265207468616e203235206d6f64756c6573006044820152606490fd5b50634e487b7160e01b600052604160045260246000fd5b67ffffffffffffffff8111610eb857604052565b610ec0610e8d565b604052565b90601f8019910116810190811067ffffffffffffffff821117610eb857604052565b9081602091031261000e5751801515810361000e5790565b506040513d6000823e3d90fd5b15610f1357565b60405162461bcd60e51b815260206004820152603460248201527f636f6d706c69616e6365206973206e6f74207375697461626c6520666f722062604482015273696e64696e6720746f20746865206d6f64756c6560601b6064820152608490fd5b50634e487b7160e01b600052603260045260246000fd5b606654811015610fc4575b60666000527f46501879b8ca8525e8c2fd519e2fbfcfa2ebea26501294aa02cbfcfb12e943540190600090565b610fcc610f75565b610f97565b60665468010000000000000000811015611049575b600181018060665581101561103c575b60666000527f46501879b8ca8525e8c2fd519e2fbfcfa2ebea26501294aa02cbfcfb12e943540180546001600160a01b0319166001600160a01b03909216919091179055565b611044610f75565b610ff6565b611051610e8d565b610fe6565b1561105d57565b60405162461bcd60e51b815260206004820152601060248201526f1b5bd91d5b19481b9bdd08189bdd5b9960821b6044820152606490fd5b50634e487b7160e01b600052601160045260246000fd5b60019060001981146110bc570190565b6110c4611095565b0190565b6000198101919082116110d757565b6110df611095565b565b6066548015611147577f46501879b8ca8525e8c2fd519e2fbfcfa2ebea26501294aa02cbfcfb12e943536000198201918083101561113a575b6066600052016bffffffffffffffffffffffff60a01b8154169055606655565b611142610f75565b61111a565b634e487b7160e01b600052603160045260246000fd5b1561116457565b60a460405162461bcd60e51b815260206004820152604460248201527f6572726f72203a20746869732061646472657373206973206e6f74206120746f60448201527f6b656e20626f756e6420746f2074686520636f6d706c69616e636520636f6e746064820152631c9858dd60e21b6084820152fd5b156111e257565b60405162461bcd60e51b8152602060048201526024808201527f696e76616c696420617267756d656e74202d206e6f2076616c7565207472616e60448201526339b332b960e11b6064820152608490fd5b1561123a57565b606460405162461bcd60e51b815260206004820152602060248201527f696e76616c696420617267756d656e74202d206e6f2076616c7565206d696e746044820152fd5b1561128557565b606460405162461bcd60e51b815260206004820152602060248201527f696e76616c696420617267756d656e74202d206e6f2076616c7565206275726e6044820152fd5b6112d16114ff565b6001600160a01b0383166000818152606760205260408120549194909160ff161561136157818481928260405191838884375af11561135957506113397f20d79de70adcc6e9353d8a9a5646b46dc352710d0a310b1ad1f67faeca7ef8919261135492611468565b6040516001600160e01b031990911681529081906020820190565b0390a2565b3d81803e3d90fd5b60405162461bcd60e51b815260206004820152601960248201527f63616c6c206f6e6c79206f6e20626f756e64206d6f64756c65000000000000006044820152606490fd5b606654929160005b8481106113bf575050505050600190565b6113d161059f61059f61058a84610f8c565b604051624edf3960e21b81526001600160a01b03858116600483015284166024820152604481018690523060648201526020918290829060849082905afa91821561145b575b60009261143e575b5050156114345761142f906110ac565b6113ae565b5050505050600090565b6114549250803d10610335576103268183610ec5565b388061141f565b611463610eff565b611417565b60009291600411156114775750565b359150565b1561148357565b60405162461bcd60e51b815260206004820152602b60248201527f496e697469616c697a61626c653a20636f6e7472616374206973206e6f74206960448201526a6e697469616c697a696e6760a81b6064820152608490fd5b6114f660ff60005460081c166114f18161147c565b61147c565b6110df33611557565b6033546001600160a01b0316330361151357565b606460405162461bcd60e51b815260206004820152602060248201527f4f776e61626c653a2063616c6c6572206973206e6f7420746865206f776e65726044820152fd5b603380546001600160a01b039283166001600160a01b0319821681179092559091167f8be0079c531659141344cd1fd0a4f28419497f9722a3daafe3b4186f6b6457e0600080a356fea26469706673582212208d141ffd6b718513d3296bf71dc4b3d14658f7759b9319fd4808df0dd468a65164736f6c63430008110033604060808152610416908138038061001681610218565b93843982019181818403126102135780516001600160a01b038116808203610213576020838101516001600160401b0394919391858211610213570186601f820112156102135780519061007161006c83610253565b610218565b918083528583019886828401011161021357888661008f930161026e565b813b156101b9577f360894a13ba1a3210667c828492db98dca3e2076cc3735a920a3ca505d382bbc80546001600160a01b031916841790556000927fbc7cd75a20ee27fd9adebab32041f755214dbc6bffa90cc0225b39da2e5c2d3b8480a28051158015906101b2575b61010b575b855160d190816103458239f35b855194606086019081118682101761019e578697849283926101889952602788527f416464726573733a206c6f772d6c6576656c2064656c65676174652063616c6c87890152660819985a5b195960ca1b8a8901525190845af4913d15610194573d9061017a61006c83610253565b91825281943d92013e610291565b508038808080806100fe565b5060609250610291565b634e487b7160e01b84526041600452602484fd5b50826100f9565b855162461bcd60e51b815260048101859052602d60248201527f455243313936373a206e657720696d706c656d656e746174696f6e206973206e60448201526c1bdd08184818dbdb9d1c9858dd609a1b6064820152608490fd5b600080fd5b6040519190601f01601f191682016001600160401b0381118382101761023d57604052565b634e487b7160e01b600052604160045260246000fd5b6001600160401b03811161023d57601f01601f191660200190565b60005b8381106102815750506000910152565b8181015183820152602001610271565b919290156102f357508151156102a5575090565b3b156102ae5790565b60405162461bcd60e51b815260206004820152601d60248201527f416464726573733a2063616c6c20746f206e6f6e2d636f6e74726163740000006044820152606490fd5b8251909150156103065750805190602001fd5b6044604051809262461bcd60e51b825260206004830152610336815180928160248601526020868601910161026e565b601f01601f19168101030190fdfe608060405236156054577f360894a13ba1a3210667c828492db98dca3e2076cc3735a920a3ca505d382bbc54600090819081906001600160a01b0316368280378136915af43d82803e156050573d90f35b3d90fd5b7f360894a13ba1a3210667c828492db98dca3e2076cc3735a920a3ca505d382bbc54600090819081906001600160a01b0316368280378136915af43d82803e156050573d90f3fea2646970667358221220f7358e2ca7295512861a861df24df6757b643cd7b127beda812936a1298cafd864736f6c63430008110033360894a13ba1a3210667c828492db98dca3e2076cc3735a920a3ca505d382bbca2646970667358221220f01aa231dc31d02c729ac01c9a4089d29aa4ee40d01c4d3048b4e86cbd5a155c64736f6c63430008110033","linkReferences":{}},"methodIdentifiers":{"DEFAULT_ADMIN_ROLE()":"a217fddf","addModuleToToken(address,address)":"15467d52","addRelayer(address)":"dd39f00d","assetImpl()":"1ff1fcae","assetManagerOf(address)":"cd6bdd7a","assetMgrImpl()":"60d8c5ba","assetToModularCompliance(address)":"8e2a2452","assetToSPVIdHash(address)":"c1c68c22","assetToSpv(address)":"1acdf4d7","bindToken(address)":"3ff5aa02","deployAsset((string,string,string,string,uint8,uint256,bytes32,address,address,uint256,uint256))":"f71f5a0d","directory()":"c41c2f24","getAsset(bytes32)":"2cc3ce80","getAssetModularCompliance(address)":"f4753be8","getAssetSPV(address)":"5aa326c7","getRoleAdmin(bytes32)":"248a9ca3","getSPVIDHash(address)":"bac107e6","grantRole(bytes32,address)":"2f2ff15d","hasRole(bytes32,address)":"91d14854","initialize(address,address,address,address,address,address,address)":"35876476","isRelayer(address)":"541d5548","nexaIdentityRegistry()":"cf51bc0f","nexaOnchainIdFactory()":"9a8b588c","orderManagerOf(address)":"f9a53e74","orderMgrImpl()":"917432f7","pause()":"8456cb59","paused()":"5c975abb","proxiableUUID()":"52d1902d","relayerWhitelist(address)":"ad5dd7ed","removeModuleFromToken(address,address)":"703f6c5d","removeRelayer(address)":"60f0a5ac","renounceRole(bytes32,address)":"36568abe","revokeRole(bytes32,address)":"d547741f","setImpl(string,address)":"a9f7e546","spvIdToAsset(bytes32)":"a811933a","supportsInterface(bytes4)":"01ffc9a7","unbindToken(address)":"40db3b50","unpause()":"3f4ba83a","upgradeTo(address)":"3659cfe6","upgradeToAndCall(address,bytes)":"4f1ef286"},"id":93}