{"abi":[{"type":"function","name":"DEFAULT_ADMIN_ROLE","inputs":[],"outputs":[{"name":"","type":"bytes32","internalType":"bytes32"}],"stateMutability":"view"},{"type":"function","name":"admin","inputs":[],"outputs":[{"name":"","type":"address","internalType":"address"}],"stateMutability":"view"},{"type":"function","name":"deploySPV","inputs":[{"name":"spvId","type":"string","internalType":"string"},{"name":"name","type":"string","internalType":"string"},{"name":"metaCID","type":"bytes32","internalType":"bytes32"}],"outputs":[{"name":"spv","type":"address","internalType":"address"}],"stateMutability":"nonpayable"},{"type":"function","name":"directory","inputs":[],"outputs":[{"name":"","type":"address","internalType":"contract INexaDirectory"}],"stateMutability":"view"},{"type":"function","name":"getDirectory","inputs":[],"outputs":[{"name":"","type":"address","internalType":"address"}],"stateMutability":"view"},{"type":"function","name":"getRoleAdmin","inputs":[{"name":"role","type":"bytes32","internalType":"bytes32"}],"outputs":[{"name":"","type":"bytes32","internalType":"bytes32"}],"stateMutability":"view"},{"type":"function","name":"getSPVAddress","inputs":[{"name":"spvIdHash","type":"bytes32","internalType":"bytes32"}],"outputs":[{"name":"","type":"address","internalType":"address"}],"stateMutability":"view"},{"type":"function","name":"getSpvImpl","inputs":[],"outputs":[{"name":"","type":"address","internalType":"address"}],"stateMutability":"view"},{"type":"function","name":"grantRole","inputs":[{"name":"role","type":"bytes32","internalType":"bytes32"},{"name":"account","type":"address","internalType":"address"}],"outputs":[],"stateMutability":"nonpayable"},{"type":"function","name":"hasRole","inputs":[{"name":"role","type":"bytes32","internalType":"bytes32"},{"name":"account","type":"address","internalType":"address"}],"outputs":[{"name":"","type":"bool","internalType":"bool"}],"stateMutability":"view"},{"type":"function","name":"initialize","inputs":[{"name":"_directory","type":"address","internalType":"address"},{"name":"_spv","type":"address","internalType":"address"},{"name":"_admin","type":"address","internalType":"address"}],"outputs":[],"stateMutability":"nonpayable"},{"type":"function","name":"pause","inputs":[],"outputs":[],"stateMutability":"nonpayable"},{"type":"function","name":"paused","inputs":[],"outputs":[{"name":"","type":"bool","internalType":"bool"}],"stateMutability":"view"},{"type":"function","name":"proxiableUUID","inputs":[],"outputs":[{"name":"","type":"bytes32","internalType":"bytes32"}],"stateMutability":"view"},{"type":"function","name":"renounceRole","inputs":[{"name":"role","type":"bytes32","internalType":"bytes32"},{"name":"account","type":"address","internalType":"address"}],"outputs":[],"stateMutability":"nonpayable"},{"type":"function","name":"revokeRole","inputs":[{"name":"role","type":"bytes32","internalType":"bytes32"},{"name":"account","type":"address","internalType":"address"}],"outputs":[],"stateMutability":"nonpayable"},{"type":"function","name":"setImpl","inputs":[{"name":"what","type":"string","internalType":"string"},{"name":"impl","type":"address","internalType":"address"}],"outputs":[],"stateMutability":"nonpayable"},{"type":"function","name":"spvImpl","inputs":[],"outputs":[{"name":"","type":"address","internalType":"address"}],"stateMutability":"view"},{"type":"function","name":"spvOf","inputs":[{"name":"","type":"bytes32","internalType":"bytes32"}],"outputs":[{"name":"","type":"address","internalType":"address"}],"stateMutability":"view"},{"type":"function","name":"supportsInterface","inputs":[{"name":"interfaceId","type":"bytes4","internalType":"bytes4"}],"outputs":[{"name":"","type":"bool","internalType":"bool"}],"stateMutability":"view"},{"type":"function","name":"unpause","inputs":[],"outputs":[],"stateMutability":"nonpayable"},{"type":"function","name":"updateDirectory","inputs":[{"name":"_directory","type":"address","internalType":"address"}],"outputs":[],"stateMutability":"nonpayable"},{"type":"function","name":"upgradeTo","inputs":[{"name":"newImplementation","type":"address","internalType":"address"}],"outputs":[],"stateMutability":"nonpayable"},{"type":"function","name":"upgradeToAndCall","inputs":[{"name":"newImplementation","type":"address","internalType":"address"},{"name":"data","type":"bytes","internalType":"bytes"}],"outputs":[],"stateMutability":"payable"},{"type":"event","name":"AdminChanged","inputs":[{"name":"previousAdmin","type":"address","indexed":false,"internalType":"address"},{"name":"newAdmin","type":"address","indexed":false,"internalType":"address"}],"anonymous":false},{"type":"event","name":"BeaconUpgraded","inputs":[{"name":"beacon","type":"address","indexed":true,"internalType":"address"}],"anonymous":false},{"type":"event","name":"DirectoryUpdated","inputs":[{"name":"newDirectory","type":"address","indexed":true,"internalType":"address"}],"anonymous":false},{"type":"event","name":"ImplUpdated","inputs":[{"name":"what","type":"string","indexed":true,"internalType":"string"},{"name":"impl","type":"address","indexed":true,"internalType":"address"}],"anonymous":false},{"type":"event","name":"Initialized","inputs":[{"name":"version","type":"uint8","indexed":false,"internalType":"uint8"}],"anonymous":false},{"type":"event","name":"Paused","inputs":[{"name":"account","type":"address","indexed":false,"internalType":"address"}],"anonymous":false},{"type":"event","name":"RoleAdminChanged","inputs":[{"name":"role","type":"bytes32","indexed":true,"internalType":"bytes32"},{"name":"previousAdminRole","type":"bytes32","indexed":true,"internalType":"bytes32"},{"name":"newAdminRole","type":"bytes32","indexed":true,"internalType":"bytes32"}],"anonymous":false},{"type":"event","name":"RoleGranted","inputs":[{"name":"role","type":"bytes32","indexed":true,"internalType":"bytes32"},{"name":"account","type":"address","indexed":true,"internalType":"address"},{"name":"sender","type":"address","indexed":true,"internalType":"address"}],"anonymous":false},{"type":"event","name":"RoleRevoked","inputs":[{"name":"role","type":"bytes32","indexed":true,"internalType":"bytes32"},{"name":"account","type":"address","indexed":true,"internalType":"address"},{"name":"sender","type":"address","indexed":true,"internalType":"address"}],"anonymous":false},{"type":"event","name":"SPVSuiteDeployed","inputs":[{"name":"idHash","type":"bytes32","indexed":true,"internalType":"bytes32"},{"name":"spv","type":"address","indexed":true,"internalType":"address"},{"name":"spvId","type":"string","indexed":false,"internalType":"string"}],"anonymous":false},{"type":"event","name":"Unpaused","inputs":[{"name":"account","type":"address","indexed":false,"internalType":"address"}],"anonymous":false},{"type":"event","name":"Upgraded","inputs":[{"name":"implementation","type":"address","indexed":true,"internalType":"address"}],"anonymous":false},{"type":"error","name":"AlreadyExists","inputs":[]},{"type":"error","name":"DeployFail","inputs":[]},{"type":"error","name":"EmptyString","inputs":[]}],"bytecode":{"object":"0x60a0806040523461003157306080526122d990816100378239608051818181610b7201528181610c7c01526110250152f35b600080fdfe60808060405260043610156200001457600080fd5b600090813560e01c90816301ffc9a7146200150a5750806321170359146200149b578063248a9ca3146200146c5780632f2ff15d14620013b657806336568abe146200131c5780633659cfe61462000ffc5780633f4ba83a1462000f625780634f1ef2861462000c2557806352d1902d1462000b5d5780635c975abb1462000b3857806376247776146200021b5780638456cb591462000ad757806391d148541462000a8a578063a217fddf1462000a6c578063a9f7e5461462000951578063b164e50214620004e9578063b74f355014620004b3578063c0c53b8b1462000247578063c41c2f24146200021b578063d3f60c0014620001a6578063d547741f14620001d2578063e5da41e614620001a6578063f851a440146200017a5763fb0ce653146200014257600080fd5b3462000177576020366003190112620001775760209060043581526101628252604060018060a01b0391205416604051908152f35b80fd5b50346200017757806003193601126200017757610161546040516001600160a01b039091168152602090f35b50346200017757806003193601126200017757610160546040516001600160a01b039091168152602090f35b503462000177576040366003190112620001775762000218600435620001f76200157b565b9080845260656020526200021260016040862001546200189f565b62001a09565b80f35b5034620001775780600319360112620001775761015f546040516001600160a01b039091168152602090f35b50346200017757606036600319011262000177576200026562001564565b6200026f6200157b565b6001600160a01b0391604435838116929190839003620004ae5784549160ff8360081c161594858096620004a0575b801562000487575b156200042b5760ff198481166001178855938662000419575b506200031160ff885460081c16620002d78162001da6565b620002e28162001da6565b620002ed8162001da6565b620002f88162001da6565b8560fb541660fb556200030b8162001da6565b62001da6565b600161012d556bffffffffffffffffffffffff60a01b928161015f911684825416179055610160911682825416179055826101619182541617905560008052606560205260406000208260005260205260ff6040600020541615620003b2575b50506200037b5780f35b61ff001981541681557f7f26b83ff96e1f2b6a682f133852f6798a09c465da95921460cefb3847402498602060405160018152a180f35b60008281527fffdfc1249c027f9191656349feb0761381bb32c9f557e01f419fd08754bf5a1b6020526040812080549092166001179091553391907f2f8788117e7eff1d82e926ec794901d17c78024a50270940304540a733656f0d8180a4388062000371565b61ffff191661010117875538620002bf565b60405162461bcd60e51b815260206004820152602e60248201527f496e697469616c697a61626c653a20636f6e747261637420697320616c72656160448201526d191e481a5b9a5d1a585b1a5e995960921b6064820152608490fd5b50303b158015620002a65750600160ff851614620002a6565b50600160ff8516106200029e565b600080fd5b503462000177576020366003190112620001775760209060043581526101628252604060018060a01b0391205416604051908152f35b503462000177576060366003190112620001775760043567ffffffffffffffff81116200094d57620005209036906004016200165e565b9060243567ffffffffffffffff81116200094957620005449036906004016200165e565b90916200055062001e28565b600261012d54146200090457600261012d558480526020936065855260408620338752855260ff604087205416801562000880575b1562000845576200059836828462001622565b805190860120808752610162865260408720549093906001600160a01b031662000833578115801562000827575b6200080957801580156200081b575b62000809576101605461015f5461016154604051632ce2179760e01b8a820152608060248201526001600160a01b039384169390926200064892849291821691166200062660a48401898b62001e07565b9160448401526064830152604435608483015203601f198101835282620015e2565b604051918261041681011067ffffffffffffffff61041685011117620007f5578291620006909161041662001e6e8539610416840190815260408b82018190520190620019e2565b039088f08015620007d4576001600160a01b031694853b15620007e35761015f548891906001600160a01b0316803b15620007df57620006f6938360405180968195829463db97d13760e01b84528c600485015260806024850152608484019162001e07565b60443560448301528b606483015203925af18015620007d45762000786575b50907f6915cc4287a46970fd2acfefc8b8e1b263df3a82afbc8fdccac89393cb0e7818916040878587989952610162895220856bffffffffffffffffffffffff60a01b825416179055620007756040519283928984528984019162001e07565b0390a3600161012d55604051908152f35b67ffffffffffffffff8111620007c0576040527f6915cc4287a46970fd2acfefc8b8e1b263df3a82afbc8fdccac89393cb0e781862000715565b634e487b7160e01b87526041600452602487fd5b6040513d89823e3d90fd5b8280fd5b604051637b8b46a760e01b8152600490fd5b634e487b7160e01b8a52604160045260248afd5b60405163ecd7b0d160e01b8152600490fd5b506101008111620005d5565b506101008211620005c6565b60405163119b4fd360e11b8152600490fd5b60405162461bcd60e51b81526004810186905260136024820152722ab730baba3437b934bd32b21031b0b63632b960691b6044820152606490fd5b5061015f54604051623a9b1b60e11b8152336004820152908690829060249082906001600160a01b03165afa908115620007d4578791620008c3575b5062000585565b90508581813d8311620008fc575b620008dd8183620015e2565b81010312620008f857518015158103620008f85738620008bc565b8680fd5b503d620008d1565b60405162461bcd60e51b815260206004820152601f60248201527f5265656e7472616e637947756172643a207265656e7472616e742063616c6c006044820152606490fd5b8380fd5b5080fd5b503462000177576040366003190112620001775760043567ffffffffffffffff81116200094d57620009889036906004016200165e565b620009926200157b565b916200099d6200168f565b7fbcf036ef354d086da44c24facedceacdb846b210406e4b35cab0fddc7b5ac0df620009cb36848462001622565b602081519101201460001462000a3c5761016080546001600160a01b0319166001600160a01b0385161790556040519182918190833781018481520390206001600160a01b03909116907f9a4b883373180089cc081c644a561eba93e149b8967d1218caa52e26849aaa218380a380f35b60405162461bcd60e51b8152602060048201526008602482015267426164207479706560c01b6044820152606490fd5b50346200017757806003193601126200017757602090604051908152f35b503462000177576040366003190112620001775760ff604060209262000aaf6200157b565b6004358252606585528282206001600160a01b03909116825284522054604051911615158152f35b5034620001775780600319360112620001775762000af46200168f565b62000afe62001e28565b600160ff1960fb54161760fb557f62e78cea01bee320cd4e420270b5ea74000d11b0c9f74754ebdbfc544b05a2586020604051338152a180f35b50346200017757806003193601126200017757602060ff60fb54166040519015158152f35b503462000177578060031936011262000177577f00000000000000000000000000000000000000000000000000000000000000006001600160a01b0316300362000bba576020604051600080516020620022848339815191528152f35b60405162461bcd60e51b815260206004820152603860248201527f555550535570677261646561626c653a206d757374206e6f742062652063616c60448201527f6c6564207468726f7567682064656c656761746563616c6c00000000000000006064820152608490fd5b506040366003190112620001775762000c3d62001564565b60243567ffffffffffffffff8111620007df5736602382011215620007df5762000c7290369060248160040135910162001622565b6001600160a01b037f0000000000000000000000000000000000000000000000000000000000000000811692919062000cae3085141562001a80565b62000cce6000805160206200228483398151915294828654161462001ae2565b62000cd86200168f565b8216801562000f2c577fbc7cd75a20ee27fd9adebab32041f755214dbc6bffa90cc0225b39da2e5c2d3b81818780a27f4910fdfa16fed3260ed0e7147f7cc6da11a60208b5b9406d12a635614ffd91435460ff161562000d415750505062000218915062001b44565b6040516352d1902d60e01b8152602095908681600481875afa88918162000ef3575b5062000dc55760405162461bcd60e51b815260048101889052602e60248201527f45524331393637557067726164653a206e657720696d706c656d656e7461746960448201526d6f6e206973206e6f74205555505360901b6064820152608490fd5b959394950362000e9c5762000dda8562001b44565b8580a281511580159062000e93575b62000df5575b50505080f35b62000e7f9284806040519462000e0b8662001592565b602786527f416464726573733a206c6f772d6c6576656c2064656c65676174652063616c6c85870152660819985a5b195960ca1b60408701528481519101845af4903d1562000e89573d62000e608162001605565b9062000e706040519283620015e2565b81528681943d92013e62001bd6565b5038808062000def565b6060925062001bd6565b50600162000de9565b60405162461bcd60e51b815260048101849052602960248201527f45524331393637557067726164653a20756e737570706f727465642070726f786044820152681a58589b195555525160ba1b6064820152608490fd5b9091508781813d831162000f24575b62000f0e8183620015e2565b8101031262000f205751903862000d63565b8880fd5b503d62000f02565b60405162461bcd60e51b815260206004820152600e60248201526d43616e6e6f74206265205a65726f60901b6044820152606490fd5b5034620001775780600319360112620001775762000f7f6200168f565b60fb5460ff81161562000fc05760ff191660fb557f5db9ee0a495bf2e6ff9c91a7834c1ba4fdd244a5e8aa4e537bd38aeae4b073aa6020604051338152a180f35b60405162461bcd60e51b815260206004820152601460248201527314185d5cd8589b194e881b9bdd081c185d5cd95960621b6044820152606490fd5b503462000177576020806003193601126200094d576200101b62001564565b6001600160a01b037f0000000000000000000000000000000000000000000000000000000000000000811690620010553083141562001a80565b620010756000805160206200228483398151915292828454161462001ae2565b6200107f6200168f565b82168015620012e6577fbc7cd75a20ee27fd9adebab32041f755214dbc6bffa90cc0225b39da2e5c2d3b9080828780a2604051918583019383851067ffffffffffffffff861117620012d2578460405287845260ff7f4910fdfa16fed3260ed0e7147f7cc6da11a60208b5b9406d12a635614ffd914354166000146200111057505050505062000218915062001b44565b6040516352d1902d60e01b8152949593948781600481875afa89918162001299575b50620011945760405162461bcd60e51b815260048101899052602e60248201527f45524331393637557067726164653a206e657720696d706c656d656e7461746960448201526d6f6e206973206e6f74205555505360901b6064820152608490fd5b96949596036200124257620011a98362001b44565b8680a2848351158015906200123a575b620011c7575b505050505080f35b806200122e9560405195620011dc8762001592565b602787527f416464726573733a206c6f772d6c6576656c2064656c65676174652063616c6c86880152660819985a5b195960ca1b60408801525190845af4903d1562000e89573d62000e608162001605565b503880808084620011bf565b5080620011b9565b60405162461bcd60e51b815260048101859052602960248201527f45524331393637557067726164653a20756e737570706f727465642070726f786044820152681a58589b195555525160ba1b6064820152608490fd5b9091508881813d8311620012ca575b620012b48183620015e2565b81010312620012c65751903862001132565b8980fd5b503d620012a8565b634e487b7160e01b88526041600452602488fd5b60405162461bcd60e51b815260048101859052600e60248201526d43616e6e6f74206265205a65726f60901b6044820152606490fd5b50346200017757604036600319011262000177576200133a6200157b565b336001600160a01b038216036200135957620002189060043562001a09565b60405162461bcd60e51b815260206004820152602f60248201527f416363657373436f6e74726f6c3a2063616e206f6e6c792072656e6f756e636560448201526e103937b632b9903337b91039b2b63360891b6064820152608490fd5b5034620001775760403660031901126200017757600435620013d76200157b565b8183526065602052620013f160016040852001546200189f565b8183526065602052604083209060018060a01b03169081845260205260ff604084205416156200141f578280f35b81835260656020526040832081845260205260408320600160ff1982541617905533917f2f8788117e7eff1d82e926ec794901d17c78024a50270940304540a733656f0d8480a438808280f35b503462000177576020366003190112620001775760016040602092600435815260658452200154604051908152f35b5034620001775760203660031901126200017757620014b962001564565b620014c36200168f565b61015f80546001600160a01b0319166001600160a01b039290921691821790557f806b1cc63111c088fbfa22d6f907e4ebf76601e49f7ae28277e3d655f6e8e0e78280a280f35b9050346200094d5760203660031901126200094d5760043563ffffffff60e01b8116809103620007df5760209250637965db0b60e01b811490811562001552575b5015158152f35b6301ffc9a760e01b149050386200154b565b600435906001600160a01b0382168203620004ae57565b602435906001600160a01b0382168203620004ae57565b6060810190811067ffffffffffffffff821117620015af57604052565b634e487b7160e01b600052604160045260246000fd5b6080810190811067ffffffffffffffff821117620015af57604052565b90601f8019910116810190811067ffffffffffffffff821117620015af57604052565b67ffffffffffffffff8111620015af57601f01601f191660200190565b929192620016308262001605565b91620016406040519384620015e2565b829481845281830111620004ae578281602093846000960137010152565b9181601f84011215620004ae5782359167ffffffffffffffff8311620004ae5760208381860195010111620004ae57565b3360009081527fffdfc1249c027f9191656349feb0761381bb32c9f557e01f419fd08754bf5a1b602090815260408083205490929060ff1615620016d257505050565b620016dd3362001c9d565b9080845190620016ed82620015c5565b604282528482019260603685378251156200188b57603084538251906001918210156200188b5790607860218501536041915b8183116200181857505050620017d6576048620017d2938693620017b593620017a5985198899376020b1b1b2b9b9a1b7b73a3937b61d1030b1b1b7bab73a1604d1b8a8601526200177b815180928c603789019101620019bd565b8401917001034b99036b4b9b9b4b733903937b6329607d1b603784015251809386840190620019bd565b01036028810187520185620015e2565b5192839262461bcd60e51b845260048401526024830190620019e2565b0390fd5b60648486519062461bcd60e51b825280600483015260248201527f537472696e67733a20686578206c656e67746820696e73756666696369656e746044820152fd5b909192600f8116601081101562001877576f181899199a1a9b1b9c1cb0b131b232b360811b901a6200184b858762001c75565b5360041c928015620018635760001901919062001720565b634e487b7160e01b82526011600452602482fd5b634e487b7160e01b83526032600452602483fd5b634e487b7160e01b81526032600452602490fd5b60009080825260209060658252604092838120338252835260ff848220541615620018ca5750505050565b620018d53362001c9d565b91845190620018e482620015c5565b604282528482019260603685378251156200188b57603084538251906001918210156200188b5790607860218501536041915b8183116200197257505050620017d6576048620017d2938693620017b593620017a5985198899376020b1b1b2b9b9a1b7b73a3937b61d1030b1b1b7bab73a1604d1b8a8601526200177b815180928c603789019101620019bd565b909192600f8116601081101562001877576f181899199a1a9b1b9c1cb0b131b232b360811b901a620019a5858762001c75565b5360041c928015620018635760001901919062001917565b60005b838110620019d15750506000910152565b8181015183820152602001620019c0565b90602091620019fd81518092818552858086019101620019bd565b601f01601f1916010190565b906000918083526065602052604083209160018060a01b03169182845260205260ff60408420541662001a3b57505050565b8083526065602052604083208284526020526040832060ff1981541690557ff6391f5c32d9c69d2a47ea670b442974b53935d1edc7fd64eb21e047a839171b339380a4565b1562001a8857565b60405162461bcd60e51b815260206004820152602c60248201527f46756e6374696f6e206d7573742062652063616c6c6564207468726f7567682060448201526b19195b1959d85d1958d85b1b60a21b6064820152608490fd5b1562001aea57565b60405162461bcd60e51b815260206004820152602c60248201527f46756e6374696f6e206d7573742062652063616c6c6564207468726f7567682060448201526b6163746976652070726f787960a01b6064820152608490fd5b803b1562001b7b576000805160206200228483398151915280546001600160a01b0319166001600160a01b03909216919091179055565b60405162461bcd60e51b815260206004820152602d60248201527f455243313936373a206e657720696d706c656d656e746174696f6e206973206e60448201526c1bdd08184818dbdb9d1c9858dd609a1b6064820152608490fd5b9192901562001c3b575081511562001bec575090565b3b1562001bf65790565b60405162461bcd60e51b815260206004820152601d60248201527f416464726573733a2063616c6c20746f206e6f6e2d636f6e74726163740000006044820152606490fd5b82519091501562001c4f5750805190602001fd5b60405162461bcd60e51b815260206004820152908190620017d2906024830190620019e2565b90815181101562001c87570160200190565b634e487b7160e01b600052603260045260246000fd5b6040519062001cac8262001592565b602a825260208201604036823782511562001c875760309053815160019081101562001c8757607860218401536029905b80821162001d3357505062001cef5790565b606460405162461bcd60e51b815260206004820152602060248201527f537472696e67733a20686578206c656e67746820696e73756666696369656e746044820152fd5b9091600f8116601081101562001d91576f181899199a1a9b1b9c1cb0b131b232b360811b901a62001d65848662001c75565b5360041c91801562001d7c57600019019062001cdd565b60246000634e487b7160e01b81526011600452fd5b60246000634e487b7160e01b81526032600452fd5b1562001dae57565b60405162461bcd60e51b815260206004820152602b60248201527f496e697469616c697a61626c653a20636f6e7472616374206973206e6f74206960448201526a6e697469616c697a696e6760a81b6064820152608490fd5b908060209392818452848401376000828201840152601f01601f1916010190565b60ff60fb541662001e3557565b60405162461bcd60e51b815260206004820152601060248201526f14185d5cd8589b194e881c185d5cd95960821b6044820152606490fdfe604060808152610416908138038061001681610218565b93843982019181818403126102135780516001600160a01b038116808203610213576020838101516001600160401b0394919391858211610213570186601f820112156102135780519061007161006c83610253565b610218565b918083528583019886828401011161021357888661008f930161026e565b813b156101b9577f360894a13ba1a3210667c828492db98dca3e2076cc3735a920a3ca505d382bbc80546001600160a01b031916841790556000927fbc7cd75a20ee27fd9adebab32041f755214dbc6bffa90cc0225b39da2e5c2d3b8480a28051158015906101b2575b61010b575b855160d190816103458239f35b855194606086019081118682101761019e578697849283926101889952602788527f416464726573733a206c6f772d6c6576656c2064656c65676174652063616c6c87890152660819985a5b195960ca1b8a8901525190845af4913d15610194573d9061017a61006c83610253565b91825281943d92013e610291565b508038808080806100fe565b5060609250610291565b634e487b7160e01b84526041600452602484fd5b50826100f9565b855162461bcd60e51b815260048101859052602d60248201527f455243313936373a206e657720696d706c656d656e746174696f6e206973206e60448201526c1bdd08184818dbdb9d1c9858dd609a1b6064820152608490fd5b600080fd5b6040519190601f01601f191682016001600160401b0381118382101761023d57604052565b634e487b7160e01b600052604160045260246000fd5b6001600160401b03811161023d57601f01601f191660200190565b60005b8381106102815750506000910152565b8181015183820152602001610271565b919290156102f357508151156102a5575090565b3b156102ae5790565b60405162461bcd60e51b815260206004820152601d60248201527f416464726573733a2063616c6c20746f206e6f6e2d636f6e74726163740000006044820152606490fd5b8251909150156103065750805190602001fd5b6044604051809262461bcd60e51b825260206004830152610336815180928160248601526020868601910161026e565b601f01601f19168101030190fdfe608060405236156054577f360894a13ba1a3210667c828492db98dca3e2076cc3735a920a3ca505d382bbc54600090819081906001600160a01b0316368280378136915af43d82803e156050573d90f35b3d90fd5b7f360894a13ba1a3210667c828492db98dca3e2076cc3735a920a3ca505d382bbc54600090819081906001600160a01b0316368280378136915af43d82803e156050573d90f3fea2646970667358221220f7358e2ca7295512861a861df24df6757b643cd7b127beda812936a1298cafd864736f6c63430008110033360894a13ba1a3210667c828492db98dca3e2076cc3735a920a3ca505d382bbca2646970667358221220757555a94ff8b73381768d06a1e751323300b0236d58be770c52702222c171ec64736f6c63430008110033","linkReferences":{}},"methodIdentifiers":{"DEFAULT_ADMIN_ROLE()":"a217fddf","admin()":"f851a440","deploySPV(string,string,bytes32)":"b164e502","directory()":"c41c2f24","getDirectory()":"76247776","getRoleAdmin(bytes32)":"248a9ca3","getSPVAddress(bytes32)":"fb0ce653","getSpvImpl()":"d3f60c00","grantRole(bytes32,address)":"2f2ff15d","hasRole(bytes32,address)":"91d14854","initialize(address,address,address)":"c0c53b8b","pause()":"8456cb59","paused()":"5c975abb","proxiableUUID()":"52d1902d","renounceRole(bytes32,address)":"36568abe","revokeRole(bytes32,address)":"d547741f","setImpl(string,address)":"a9f7e546","spvImpl()":"e5da41e6","spvOf(bytes32)":"b74f3550","supportsInterface(bytes4)":"01ffc9a7","unpause()":"3f4ba83a","updateDirectory(address)":"21170359","upgradeTo(address)":"3659cfe6","upgradeToAndCall(address,bytes)":"4f1ef286"},"id":102}